{
  "contractName": "Insurance",
  "abi": [
    {
      "constant": true,
      "inputs": [
        {
          "name": "",
          "type": "uint256"
        }
      ],
      "name": "house_info",
      "outputs": [
        {
          "name": "house_owner",
          "type": "address"
        },
        {
          "name": "total_to_insure",
          "type": "uint256"
        },
        {
          "name": "total_currently_insured",
          "type": "uint256"
        },
        {
          "name": "yearly_payment",
          "type": "uint256"
        },
        {
          "name": "yearly_stakeholder_dividend",
          "type": "uint256"
        },
        {
          "name": "is_fully_insured",
          "type": "bool"
        },
        {
          "name": "payment_for_year_completed",
          "type": "bool"
        },
        {
          "name": "house_evaluator",
          "type": "address"
        },
        {
          "name": "is_claim_active",
          "type": "bool"
        },
        {
          "name": "claim_amount",
          "type": "uint256"
        }
      ],
      "payable": false,
      "stateMutability": "view",
      "type": "function"
    },
    {
      "constant": true,
      "inputs": [
        {
          "name": "",
          "type": "address"
        }
      ],
      "name": "balances",
      "outputs": [
        {
          "name": "",
          "type": "uint256"
        }
      ],
      "payable": false,
      "stateMutability": "view",
      "type": "function"
    },
    {
      "constant": true,
      "inputs": [],
      "name": "company_address",
      "outputs": [
        {
          "name": "",
          "type": "address"
        }
      ],
      "payable": false,
      "stateMutability": "view",
      "type": "function"
    },
    {
      "constant": true,
      "inputs": [
        {
          "name": "",
          "type": "address"
        },
        {
          "name": "",
          "type": "uint256"
        }
      ],
      "name": "address_to_stake_tokens",
      "outputs": [
        {
          "name": "",
          "type": "uint256"
        }
      ],
      "payable": false,
      "stateMutability": "view",
      "type": "function"
    },
    {
      "constant": true,
      "inputs": [
        {
          "name": "",
          "type": "address"
        },
        {
          "name": "",
          "type": "uint256"
        }
      ],
      "name": "evaluator_to_house_tokens",
      "outputs": [
        {
          "name": "",
          "type": "uint256"
        }
      ],
      "payable": false,
      "stateMutability": "view",
      "type": "function"
    },
    {
      "constant": true,
      "inputs": [
        {
          "name": "",
          "type": "address"
        },
        {
          "name": "",
          "type": "uint256"
        }
      ],
      "name": "address_to_house_tokens",
      "outputs": [
        {
          "name": "",
          "type": "uint256"
        }
      ],
      "payable": false,
      "stateMutability": "view",
      "type": "function"
    },
    {
      "constant": true,
      "inputs": [],
      "name": "num_things",
      "outputs": [
        {
          "name": "",
          "type": "uint256"
        }
      ],
      "payable": false,
      "stateMutability": "view",
      "type": "function"
    },
    {
      "constant": true,
      "inputs": [
        {
          "name": "",
          "type": "uint256"
        }
      ],
      "name": "stake_info",
      "outputs": [
        {
          "name": "house_token",
          "type": "uint256"
        },
        {
          "name": "stake_owner",
          "type": "address"
        },
        {
          "name": "amount_insured",
          "type": "uint256"
        }
      ],
      "payable": false,
      "stateMutability": "view",
      "type": "function"
    },
    {
      "constant": false,
      "inputs": [],
      "name": "initialize_contract",
      "outputs": [],
      "payable": false,
      "stateMutability": "nonpayable",
      "type": "function"
    },
    {
      "constant": false,
      "inputs": [],
      "name": "add_client_address",
      "outputs": [],
      "payable": false,
      "stateMutability": "nonpayable",
      "type": "function"
    },
    {
      "constant": false,
      "inputs": [
        {
          "name": "_my_address",
          "type": "address"
        }
      ],
      "name": "get_address_to_house_tokens",
      "outputs": [
        {
          "name": "tokens",
          "type": "uint256[]"
        }
      ],
      "payable": false,
      "stateMutability": "nonpayable",
      "type": "function"
    },
    {
      "constant": false,
      "inputs": [
        {
          "name": "_house_token",
          "type": "uint256"
        },
        {
          "name": "_total_to_insure",
          "type": "uint256"
        },
        {
          "name": "_yearly_payment",
          "type": "uint256"
        },
        {
          "name": "_yearly_stakeholder_dividend",
          "type": "uint256"
        }
      ],
      "name": "add_evaluation",
      "outputs": [
        {
          "name": "success",
          "type": "bool"
        }
      ],
      "payable": false,
      "stateMutability": "nonpayable",
      "type": "function"
    },
    {
      "constant": false,
      "inputs": [
        {
          "name": "_house_token",
          "type": "uint256"
        }
      ],
      "name": "get_house_evaluator",
      "outputs": [
        {
          "name": "evaluator",
          "type": "address"
        }
      ],
      "payable": false,
      "stateMutability": "nonpayable",
      "type": "function"
    },
    {
      "constant": false,
      "inputs": [
        {
          "name": "_house_token",
          "type": "uint256"
        }
      ],
      "name": "get_homeowner",
      "outputs": [
        {
          "name": "homeowner",
          "type": "address"
        }
      ],
      "payable": false,
      "stateMutability": "nonpayable",
      "type": "function"
    },
    {
      "constant": false,
      "inputs": [
        {
          "name": "_house_token",
          "type": "uint256"
        }
      ],
      "name": "get_yearly_stakeholder_dividend",
      "outputs": [
        {
          "name": "amount",
          "type": "uint256"
        }
      ],
      "payable": false,
      "stateMutability": "nonpayable",
      "type": "function"
    },
    {
      "constant": false,
      "inputs": [
        {
          "name": "_stake_token",
          "type": "uint256"
        }
      ],
      "name": "get_stake_amount",
      "outputs": [
        {
          "name": "amount",
          "type": "uint256"
        }
      ],
      "payable": false,
      "stateMutability": "nonpayable",
      "type": "function"
    },
    {
      "constant": false,
      "inputs": [
        {
          "name": "_house_token",
          "type": "uint256"
        }
      ],
      "name": "add_house_for_client",
      "outputs": [],
      "payable": false,
      "stateMutability": "nonpayable",
      "type": "function"
    },
    {
      "constant": false,
      "inputs": [
        {
          "name": "_house_token",
          "type": "uint256"
        },
        {
          "name": "is_declined",
          "type": "bool"
        }
      ],
      "name": "check_house_expired_or_declined",
      "outputs": [
        {
          "name": "success",
          "type": "bool"
        }
      ],
      "payable": false,
      "stateMutability": "nonpayable",
      "type": "function"
    },
    {
      "constant": false,
      "inputs": [
        {
          "name": "_house_token",
          "type": "uint256"
        }
      ],
      "name": "make_initial_payment",
      "outputs": [
        {
          "name": "success",
          "type": "bool"
        }
      ],
      "payable": true,
      "stateMutability": "payable",
      "type": "function"
    },
    {
      "constant": false,
      "inputs": [
        {
          "name": "_house_token",
          "type": "uint256"
        }
      ],
      "name": "get_payment_for_year_completed",
      "outputs": [
        {
          "name": "success",
          "type": "bool"
        }
      ],
      "payable": false,
      "stateMutability": "nonpayable",
      "type": "function"
    },
    {
      "constant": false,
      "inputs": [
        {
          "name": "_house_token",
          "type": "uint256"
        },
        {
          "name": "_claim_amount",
          "type": "uint256"
        }
      ],
      "name": "create_insurance_claim",
      "outputs": [
        {
          "name": "success",
          "type": "bool"
        }
      ],
      "payable": false,
      "stateMutability": "nonpayable",
      "type": "function"
    },
    {
      "constant": false,
      "inputs": [
        {
          "name": "_stake_token",
          "type": "uint256"
        },
        {
          "name": "_house_token",
          "type": "uint256"
        },
        {
          "name": "payment_expected",
          "type": "uint256"
        }
      ],
      "name": "add_stake_for_stakeholder",
      "outputs": [
        {
          "name": "success",
          "type": "bool"
        }
      ],
      "payable": true,
      "stateMutability": "payable",
      "type": "function"
    }
  ],
  "bytecode": "0x60606040526000600755341561001457600080fd5b612ea0806100236000396000f300606060405260043610610128576000357c0100000000000000000000000000000000000000000000000000000000900463ffffffff1680630c691a7a1461012d578063274237601461016457806327e235e31461023e5780632cba9d581461028b578063324d810f146102e157806335102f8c1461036f57806335518a09146103d257806335a28eb314610409578063471213061461045e5780634dca4b8a146104b457806364481913146104d75780636d870065146105195780637c1c39ab1461056f578063896ca274146105b35780638cb951f3146105ee57806392f68cd11461065157806397a333d1146106815780639b8ca89c14610696578063b84694f2146106ec578063caf4fa7214610701578063ef1cea921461072a578063fa7e559414610770575b600080fd5b341561013857600080fd5b61014e60048080359060200190919050506107e1565b6040518082815260200191505060405180910390f35b341561016f57600080fd5b6101856004808035906020019091905050610801565b604051808b73ffffffffffffffffffffffffffffffffffffffff1673ffffffffffffffffffffffffffffffffffffffff1681526020018a815260200189815260200188815260200187815260200186151515158152602001851515151581526020018473ffffffffffffffffffffffffffffffffffffffff1673ffffffffffffffffffffffffffffffffffffffff168152602001831515151581526020018281526020019a505050505050505050505060405180910390f35b341561024957600080fd5b610275600480803573ffffffffffffffffffffffffffffffffffffffff169060200190919050506108bc565b6040518082815260200191505060405180910390f35b341561029657600080fd5b6102c760048080359060200190919080359060200190919080359060200190919080359060200190919050506108d4565b604051808215151515815260200191505060405180910390f35b34156102ec57600080fd5b610318600480803573ffffffffffffffffffffffffffffffffffffffff16906020019091905050610c42565b6040518080602001828103825283818151815260200191508051906020019060200280838360005b8381101561035b578082015181840152602081019050610340565b505050509050019250505060405180910390f35b341561037a57600080fd5b6103906004808035906020019091905050610cdf565b604051808273ffffffffffffffffffffffffffffffffffffffff1673ffffffffffffffffffffffffffffffffffffffff16815260200191505060405180910390f35b34156103dd57600080fd5b6103f36004808035906020019091905050610d1f565b6040518082815260200191505060405180910390f35b341561041457600080fd5b61041c610d3f565b604051808273ffffffffffffffffffffffffffffffffffffffff1673ffffffffffffffffffffffffffffffffffffffff16815260200191505060405180910390f35b341561046957600080fd5b61049e600480803573ffffffffffffffffffffffffffffffffffffffff16906020019091908035906020019091905050610d64565b6040518082815260200191505060405180910390f35b34156104bf57600080fd5b6104d56004808035906020019091905050610d95565b005b6104ff600480803590602001909190803590602001909190803590602001909190505061102d565b604051808215151515815260200191505060405180910390f35b341561052457600080fd5b610559600480803573ffffffffffffffffffffffffffffffffffffffff169060200190919080359060200190919050506115f3565b6040518082815260200191505060405180910390f35b341561057a57600080fd5b6105996004808035906020019091908035906020019091905050611624565b604051808215151515815260200191505060405180910390f35b34156105be57600080fd5b6105d460048080359060200190919050506119a1565b604051808215151515815260200191505060405180910390f35b34156105f957600080fd5b61060f60048080359060200190919050506119ce565b604051808273ffffffffffffffffffffffffffffffffffffffff1673ffffffffffffffffffffffffffffffffffffffff16815260200191505060405180910390f35b6106676004808035906020019091905050611a0e565b604051808215151515815260200191505060405180910390f35b341561068c57600080fd5b610694611f15565b005b34156106a157600080fd5b6106d6600480803573ffffffffffffffffffffffffffffffffffffffff16906020019091908035906020019091905050611f8a565b6040518082815260200191505060405180910390f35b34156106f757600080fd5b6106ff611fbb565b005b341561070c57600080fd5b610714611ffd565b6040518082815260200191505060405180910390f35b341561073557600080fd5b61075660048080359060200190919080351515906020019091905050612003565b604051808215151515815260200191505060405180910390f35b341561077b57600080fd5b61079160048080359060200190919050506124e1565b604051808481526020018373ffffffffffffffffffffffffffffffffffffffff1673ffffffffffffffffffffffffffffffffffffffff168152602001828152602001935050505060405180910390f35b600060066000838152602001908152602001600020600201549050919050565b60046020528060005260406000206000915090508060000160009054906101000a900473ffffffffffffffffffffffffffffffffffffffff16908060010154908060020154908060040154908060050154908060060160009054906101000a900460ff16908060060160019054906101000a900460ff16908060060160029054906101000a900473ffffffffffffffffffffffffffffffffffffffff16908060060160169054906101000a900460ff1690806007015490508a565b60016020528060005260406000206000915090505481565b60006108de612c75565b6004600087815260200190815260200160002061016060405190810160405290816000820160009054906101000a900473ffffffffffffffffffffffffffffffffffffffff1673ffffffffffffffffffffffffffffffffffffffff1673ffffffffffffffffffffffffffffffffffffffff1681526020016001820154815260200160028201548152602001600382018054806020026020016040519081016040528092919081815260200182805480156109b757602002820191906000526020600020905b8154815260200190600101908083116109a3575b5050505050815260200160048201548152602001600582015481526020016006820160009054906101000a900460ff161515151581526020016006820160019054906101000a900460ff161515151581526020016006820160029054906101000a900473ffffffffffffffffffffffffffffffffffffffff1673ffffffffffffffffffffffffffffffffffffffff1673ffffffffffffffffffffffffffffffffffffffff1681526020016006820160169054906101000a900460ff1615151515815260200160078201548152505090503381610100019073ffffffffffffffffffffffffffffffffffffffff16908173ffffffffffffffffffffffffffffffffffffffff16815250508481602001818152505083816080018181525050828160a0018181525050806004600088815260200190815260200160002060008201518160000160006101000a81548173ffffffffffffffffffffffffffffffffffffffff021916908373ffffffffffffffffffffffffffffffffffffffff16021790555060208201518160010155604082015181600201556060820151816003019080519060200190610b69929190612d08565b506080820151816004015560a0820151816005015560c08201518160060160006101000a81548160ff02191690831515021790555060e08201518160060160016101000a81548160ff0219169083151502179055506101008201518160060160026101000a81548173ffffffffffffffffffffffffffffffffffffffff021916908373ffffffffffffffffffffffffffffffffffffffff1602179055506101208201518160060160166101000a81548160ff02191690831515021790555061014082015181600701559050506001915050949350505050565b610c4a612d55565b600260008373ffffffffffffffffffffffffffffffffffffffff1673ffffffffffffffffffffffffffffffffffffffff168152602001908152602001600020805480602002602001604051908101604052809291908181526020018280548015610cd357602002820191906000526020600020905b815481526020019060010190808311610cbf575b50505050509050919050565b60006004600083815260200190815260200160002060000160009054906101000a900473ffffffffffffffffffffffffffffffffffffffff169050919050565b600060046000838152602001908152602001600020600501549050919050565b6000809054906101000a900473ffffffffffffffffffffffffffffffffffffffff1681565b600560205281600052604060002081815481101515610d7f57fe5b9060005260206000209001600091509150505481565b6000610d9f612c75565b339150610160604051908101604052808373ffffffffffffffffffffffffffffffffffffffff16815260200160008152602001600081526020016000604051805910610de85750595b9080825280602002602001820160405250815260200160008152602001600081526020016000151581526020016000151581526020016000809054906101000a900473ffffffffffffffffffffffffffffffffffffffff1673ffffffffffffffffffffffffffffffffffffffff16815260200160001515815260200160008152509050600260008373ffffffffffffffffffffffffffffffffffffffff1673ffffffffffffffffffffffffffffffffffffffff1681526020019081526020016000208054806001018281610ebc9190612d69565b916000526020600020900160008590919091505550806004600085815260200190815260200160002060008201518160000160006101000a81548173ffffffffffffffffffffffffffffffffffffffff021916908373ffffffffffffffffffffffffffffffffffffffff16021790555060208201518160010155604082015181600201556060820151816003019080519060200190610f5c929190612d08565b506080820151816004015560a0820151816005015560c08201518160060160006101000a81548160ff02191690831515021790555060e08201518160060160016101000a81548160ff0219169083151502179055506101008201518160060160026101000a81548173ffffffffffffffffffffffffffffffffffffffff021916908373ffffffffffffffffffffffffffffffffffffffff1602179055506101208201518160060160166101000a81548160ff0219169083151502179055506101408201518160070155905050505050565b600080611038612c75565b600080611043612d95565b3394506004600089815260200190815260200160002061016060405190810160405290816000820160009054906101000a900473ffffffffffffffffffffffffffffffffffffffff1673ffffffffffffffffffffffffffffffffffffffff1673ffffffffffffffffffffffffffffffffffffffff16815260200160018201548152602001600282015481526020016003820180548060200260200160405190810160405280929190818152602001828054801561111f57602002820191906000526020600020905b81548152602001906001019080831161110b575b5050505050815260200160048201548152602001600582015481526020016006820160009054906101000a900460ff161515151581526020016006820160019054906101000a900460ff161515151581526020016006820160029054906101000a900473ffffffffffffffffffffffffffffffffffffffff1673ffffffffffffffffffffffffffffffffffffffff1673ffffffffffffffffffffffffffffffffffffffff1681526020016006820160169054906101000a900460ff1615151515815260200160078201548152505093508360c0015115611242573373ffffffffffffffffffffffffffffffffffffffff166108fc349081150290604051600060405180830381858888f19350505050151561123957600080fd5b600095506115e7565b83604001518701846020015103925060008310156112a3573373ffffffffffffffffffffffffffffffffffffffff166108fc349081150290604051600060405180830381858888f19350505050151561129a57600080fd5b600095506115e7565b348711156112f4573373ffffffffffffffffffffffffffffffffffffffff166108fc349081150290604051600060405180830381858888f1935050505015156112eb57600080fd5b600095506115e7565b348711151561134d578634039150600082111561134c573373ffffffffffffffffffffffffffffffffffffffff166108fc839081150290604051600060405180830381858888f19350505050151561134b57600080fd5b5b5b3484604001510184604001818152505083602001518460400151141561137f5760018460c00190151590811515815250505b6060604051908101604052808981526020018673ffffffffffffffffffffffffffffffffffffffff168152602001348152509050600560008673ffffffffffffffffffffffffffffffffffffffff1673ffffffffffffffffffffffffffffffffffffffff16815260200190815260200160002080548060010182816114049190612d69565b916000526020600020900160008b9091909150555080600660008b81526020019081526020016000206000820151816000015560208201518160010160006101000a81548173ffffffffffffffffffffffffffffffffffffffff021916908373ffffffffffffffffffffffffffffffffffffffff1602179055506040820151816002015590505083600460008a815260200190815260200160002060008201518160000160006101000a81548173ffffffffffffffffffffffffffffffffffffffff021916908373ffffffffffffffffffffffffffffffffffffffff16021790555060208201518160010155604082015181600201556060820151816003019080519060200190611516929190612d08565b506080820151816004015560a0820151816005015560c08201518160060160006101000a81548160ff02191690831515021790555060e08201518160060160016101000a81548160ff0219169083151502179055506101008201518160060160026101000a81548173ffffffffffffffffffffffffffffffffffffffff021916908373ffffffffffffffffffffffffffffffffffffffff1602179055506101208201518160060160166101000a81548160ff0219169083151502179055506101408201518160070155905050600195505b50505050509392505050565b60036020528160005260406000208181548110151561160e57fe5b9060005260206000209001600091509150505481565b600061162e612c75565b6004600085815260200190815260200160002061016060405190810160405290816000820160009054906101000a900473ffffffffffffffffffffffffffffffffffffffff1673ffffffffffffffffffffffffffffffffffffffff1673ffffffffffffffffffffffffffffffffffffffff16815260200160018201548152602001600282015481526020016003820180548060200260200160405190810160405280929190818152602001828054801561170757602002820191906000526020600020905b8154815260200190600101908083116116f3575b5050505050815260200160048201548152602001600582015481526020016006820160009054906101000a900460ff161515151581526020016006820160019054906101000a900460ff161515151581526020016006820160029054906101000a900473ffffffffffffffffffffffffffffffffffffffff1673ffffffffffffffffffffffffffffffffffffffff1673ffffffffffffffffffffffffffffffffffffffff1681526020016006820160169054906101000a900460ff1615151515815260200160078201548152505090503373ffffffffffffffffffffffffffffffffffffffff1681610100015173ffffffffffffffffffffffffffffffffffffffff1614151561181a576000915061199a565b6001816101200190151590811515815250508281610140018181525050806004600086815260200190815260200160002060008201518160000160006101000a81548173ffffffffffffffffffffffffffffffffffffffff021916908373ffffffffffffffffffffffffffffffffffffffff160217905550602082015181600101556040820151816002015560608201518160030190805190602001906118c2929190612d08565b506080820151816004015560a0820151816005015560c08201518160060160006101000a81548160ff02191690831515021790555060e08201518160060160016101000a81548160ff0219169083151502179055506101008201518160060160026101000a81548173ffffffffffffffffffffffffffffffffffffffff021916908373ffffffffffffffffffffffffffffffffffffffff1602179055506101208201518160060160166101000a81548160ff02191690831515021790555061014082015181600701559050506119978461252b565b91505b5092915050565b60006004600083815260200190815260200160002060060160019054906101000a900460ff169050919050565b60006004600083815260200190815260200160002060060160029054906101000a900473ffffffffffffffffffffffffffffffffffffffff169050919050565b6000611a18612c75565b60008060006004600087815260200190815260200160002061016060405190810160405290816000820160009054906101000a900473ffffffffffffffffffffffffffffffffffffffff1673ffffffffffffffffffffffffffffffffffffffff1673ffffffffffffffffffffffffffffffffffffffff168152602001600182015481526020016002820154815260200160038201805480602002602001604051908101604052809291908181526020018280548015611af657602002820191906000526020600020905b815481526020019060010190808311611ae2575b5050505050815260200160048201548152602001600582015481526020016006820160009054906101000a900460ff161515151581526020016006820160019054906101000a900460ff161515151581526020016006820160029054906101000a900473ffffffffffffffffffffffffffffffffffffffff1673ffffffffffffffffffffffffffffffffffffffff1673ffffffffffffffffffffffffffffffffffffffff1681526020016006820160169054906101000a900460ff161515151581526020016007820154815250509350429250836000015173ffffffffffffffffffffffffffffffffffffffff163373ffffffffffffffffffffffffffffffffffffffff16141515611c4b573373ffffffffffffffffffffffffffffffffffffffff166108fc349081150290604051600060405180830381858888f193505050501515611c4257600080fd5b60009450611f0c565b8360c001511515611c9f573373ffffffffffffffffffffffffffffffffffffffff166108fc349081150290604051600060405180830381858888f193505050501515611c9657600080fd5b60009450611f0c565b8360e0015115611cf2573373ffffffffffffffffffffffffffffffffffffffff166108fc349081150290604051600060405180830381858888f193505050501515611ce957600080fd5b60009450611f0c565b8360800151915081341015611d4a573373ffffffffffffffffffffffffffffffffffffffff166108fc349081150290604051600060405180830381858888f193505050501515611d4157600080fd5b60009450611f0c565b60018460e001901515908115158152505081341115611da95781340390503373ffffffffffffffffffffffffffffffffffffffff166108fc829081150290604051600060405180830381858888f193505050501515611da857600080fd5b5b836004600088815260200190815260200160002060008201518160000160006101000a81548173ffffffffffffffffffffffffffffffffffffffff021916908373ffffffffffffffffffffffffffffffffffffffff16021790555060208201518160010155604082015181600201556060820151816003019080519060200190611e34929190612d08565b506080820151816004015560a0820151816005015560c08201518160060160006101000a81548160ff02191690831515021790555060e08201518160060160016101000a81548160ff0219169083151502179055506101008201518160060160026101000a81548173ffffffffffffffffffffffffffffffffffffffff021916908373ffffffffffffffffffffffffffffffffffffffff1602179055506101208201518160060160166101000a81548160ff0219169083151502179055506101408201518160070155905050611f0986612972565b94505b50505050919050565b6000604051805910611f245750595b9080825280602002602001820160405250600260003373ffffffffffffffffffffffffffffffffffffffff1673ffffffffffffffffffffffffffffffffffffffff1681526020019081526020016000209080519060200190611f87929190612dcd565b50565b600260205281600052604060002081815481101515611fa557fe5b9060005260206000209001600091509150505481565b336000806101000a81548173ffffffffffffffffffffffffffffffffffffffff021916908373ffffffffffffffffffffffffffffffffffffffff160217905550565b60075481565b600061200d612c75565b612015612d55565b600061201f612d95565b600080600460008a815260200190815260200160002061016060405190810160405290816000820160009054906101000a900473ffffffffffffffffffffffffffffffffffffffff1673ffffffffffffffffffffffffffffffffffffffff1673ffffffffffffffffffffffffffffffffffffffff1681526020016001820154815260200160028201548152602001600382018054806020026020016040519081016040528092919081815260200182805480156120fb57602002820191906000526020600020905b8154815260200190600101908083116120e7575b5050505050815260200160048201548152602001600582015481526020016006820160009054906101000a900460ff161515151581526020016006820160019054906101000a900460ff161515151581526020016006820160029054906101000a900473ffffffffffffffffffffffffffffffffffffffff1673ffffffffffffffffffffffffffffffffffffffff1673ffffffffffffffffffffffffffffffffffffffff1681526020016006820160169054906101000a900460ff161515151581526020016007820154815250509550856000015173ffffffffffffffffffffffffffffffffffffffff163373ffffffffffffffffffffffffffffffffffffffff161415801561225857506000809054906101000a900473ffffffffffffffffffffffffffffffffffffffff1673ffffffffffffffffffffffffffffffffffffffff163373ffffffffffffffffffffffffffffffffffffffff1614155b1561226657600096506124d5565b8560c0015115806122745750875b156124d05785606001519450600093505b84518410156123ef576006600086868151811015156122a057fe5b90602001906020020151815260200190815260200160002060606040519081016040529081600082015481526020016001820160009054906101000a900473ffffffffffffffffffffffffffffffffffffffff1673ffffffffffffffffffffffffffffffffffffffff1673ffffffffffffffffffffffffffffffffffffffff168152602001600282015481525050925082602001519150826040015190508173ffffffffffffffffffffffffffffffffffffffff166108fc829081150290604051600060405180830381858888f19350505050151561237e57600080fd5b60066000868681518110151561239057fe5b9060200190602002015181526020019081526020016000206000808201600090556001820160006101000a81549073ffffffffffffffffffffffffffffffffffffffff0219169055600282016000905550508380600101945050612285565b600460008a8152602001908152602001600020600080820160006101000a81549073ffffffffffffffffffffffffffffffffffffffff02191690556001820160009055600282016000905560038201600061244a9190612e1a565b600482016000905560058201600090556006820160006101000a81549060ff02191690556006820160016101000a81549060ff02191690556006820160026101000a81549073ffffffffffffffffffffffffffffffffffffffff02191690556006820160166101000a81549060ff021916905560078201600090555050600196506124d5565b600096505b50505050505092915050565b60066020528060005260406000206000915090508060000154908060010160009054906101000a900473ffffffffffffffffffffffffffffffffffffffff16908060020154905083565b6000612535612c75565b600080612540612d55565b600061254a612d95565b600080600460008b815260200190815260200160002061016060405190810160405290816000820160009054906101000a900473ffffffffffffffffffffffffffffffffffffffff1673ffffffffffffffffffffffffffffffffffffffff1673ffffffffffffffffffffffffffffffffffffffff16815260200160018201548152602001600282015481526020016003820180548060200260200160405190810160405280929190818152602001828054801561262657602002820191906000526020600020905b815481526020019060010190808311612612575b5050505050815260200160048201548152602001600582015481526020016006820160009054906101000a900460ff161515151581526020016006820160019054906101000a900460ff161515151581526020016006820160029054906101000a900473ffffffffffffffffffffffffffffffffffffffff1673ffffffffffffffffffffffffffffffffffffffff1673ffffffffffffffffffffffffffffffffffffffff1681526020016006820160169054906101000a900460ff1615151515815260200160078201548152505097508760000151965087610120015115156127125760009850612965565b8673ffffffffffffffffffffffffffffffffffffffff166108fc8961014001519081150290604051600060405180830381858888f19350505050151561275757600080fd5b876101400151886020015103955087606001519450600093505b84518410156128885760066000868681518110151561278c57fe5b90602001906020020151815260200190815260200160002060606040519081016040529081600082015481526020016001820160009054906101000a900473ffffffffffffffffffffffffffffffffffffffff1673ffffffffffffffffffffffffffffffffffffffff1673ffffffffffffffffffffffffffffffffffffffff16815260200160028201548152505092508260200151915087602001518360400151870281151561283857fe5b0490508173ffffffffffffffffffffffffffffffffffffffff166108fc829081150290604051600060405180830381858888f19350505050151561287b57600080fd5b8380600101945050612771565b600460008b8152602001908152602001600020600080820160006101000a81549073ffffffffffffffffffffffffffffffffffffffff0219169055600182016000905560028201600090556003820160006128e39190612e1a565b600482016000905560058201600090556006820160006101000a81549060ff02191690556006820160016101000a81549060ff02191690556006820160026101000a81549073ffffffffffffffffffffffffffffffffffffffff02191690556006820160166101000a81549060ff021916905560078201600090555050600198505b5050505050505050919050565b600061297c612c75565b612984612d55565b60008061298f612d95565b600080600460008a815260200190815260200160002061016060405190810160405290816000820160009054906101000a900473ffffffffffffffffffffffffffffffffffffffff1673ffffffffffffffffffffffffffffffffffffffff1673ffffffffffffffffffffffffffffffffffffffff168152602001600182015481526020016002820154815260200160038201805480602002602001604051908101604052809291908181526020018280548015612a6b57602002820191906000526020600020905b815481526020019060010190808311612a57575b5050505050815260200160048201548152602001600582015481526020016006820160009054906101000a900460ff161515151581526020016006820160019054906101000a900460ff161515151581526020016006820160029054906101000a900473ffffffffffffffffffffffffffffffffffffffff1673ffffffffffffffffffffffffffffffffffffffff1673ffffffffffffffffffffffffffffffffffffffff1681526020016006820160169054906101000a900460ff161515151581526020016007820154815250509650866060015195508660a001519450600093505b8551841015612c6557600660008786815181101515612b6957fe5b90602001906020020151815260200190815260200160002060606040519081016040529081600082015481526020016001820160009054906101000a900473ffffffffffffffffffffffffffffffffffffffff1673ffffffffffffffffffffffffffffffffffffffff1673ffffffffffffffffffffffffffffffffffffffff168152602001600282015481525050925082602001519150866020015183604001518602811515612c1557fe5b0490508173ffffffffffffffffffffffffffffffffffffffff166108fc829081150290604051600060405180830381858888f193505050501515612c5857600080fd5b8380600101945050612b4e565b6001975050505050505050919050565b61016060405190810160405280600073ffffffffffffffffffffffffffffffffffffffff1681526020016000815260200160008152602001612cb5612e3b565b81526020016000815260200160008152602001600015158152602001600015158152602001600073ffffffffffffffffffffffffffffffffffffffff168152602001600015158152602001600081525090565b828054828255906000526020600020908101928215612d44579160200282015b82811115612d43578251825591602001919060010190612d28565b5b509050612d519190612e4f565b5090565b602060405190810160405280600081525090565b815481835581811511612d9057818360005260206000209182019101612d8f9190612e4f565b5b505050565b60606040519081016040528060008152602001600073ffffffffffffffffffffffffffffffffffffffff168152602001600081525090565b828054828255906000526020600020908101928215612e09579160200282015b82811115612e08578251825591602001919060010190612ded565b5b509050612e169190612e4f565b5090565b5080546000825590600052602060002090810190612e389190612e4f565b50565b602060405190810160405280600081525090565b612e7191905b80821115612e6d576000816000905550600101612e55565b5090565b905600a165627a7a72305820536ceaef8730ce46380efbddf15f88074725b4b05a296a9d2ee0541b8c4434b80029",
  "source": "pragma solidity ^0.4.2;\n\ncontract Insurance {\n\n\n\n  address public company_address;\n\n  function initialize_contract() { \n    company_address = msg.sender;\n  }\n\n\n  \n  struct House {\n    //uint house_token;\n    address house_owner;\n\n    //In Wei\n    uint total_to_insure;\n    uint total_currently_insured;\n\n    uint[] stake_tokens;\n\n    //Each stake will have to be a multiple of this minimum stake - 1% \n    //uint minimum_stake_payment;\n\n    //FROM talking with Sam and Chris, a user will insure for 10,000, but make a \n    //11,000 payment towards us. $1000 will stay in the contract, as our company cut \n    //And 10,000 will be distributed back towards the stakeholder \n    //\n\n    uint yearly_payment;\n\n    uint yearly_stakeholder_dividend;\n\n    bool is_fully_insured;\n\n    bool payment_for_year_completed;\n    //uint total_insurance_contribution\n    address house_evaluator;\n    bool is_claim_active;\n    uint claim_amount;\n\n  }\n\n  struct Stake {\n    //uint stake_token;\n    uint house_token;\n    address stake_owner;\n    // In Wei?\n    uint amount_insured;\n  }\n\n  //Bidirectional Mapping: may not be needed \n  //mapping(address => uint) private address_to_client_token;\n  //address[] public clients;\n\n  mapping(address => uint) public balances;\n\n  //mapping(uint => address) private client_token_to_address;\n\n  //Client to their houses they want insured\n  mapping(address => uint[]) public address_to_house_tokens;\n\n  mapping(address => uint[]) public evaluator_to_house_tokens;\n\n  mapping(uint => House) public house_info;\n\n\n  //Insurer to which houses they are insuring\n  //mapping(address => uint) private address_to_insurer_token;\n  \n  mapping(address => uint[]) public address_to_stake_tokens;\n\n  mapping(uint => Stake) public stake_info;\n\n  uint public num_things = 0;\n  //uint[] private insurer_tokens;\n\n  //address[] public insurers;\n\n  /* TODOs for the functions:\n  1.) What will be the smallest unit of currency? Wei\n  2.) Storing to each of the mappings\n  3.) Schedulized payments on addition to insurer (ETH-Alarm clock)\n  4.) Cancelling insurance (end of term) and reimbursement/cancellation \n  of scheduled payments\n  5.) Optional: Timing to fulfill insurance request/notification upon fulfillment \n\n  6. Optional: Allow users the option to refresh their insurance based on the price \n  of the house\n\n\n  */\n\n  //Getters and setters for all mappings above\n\n\n  function add_client_address() public {\n    address_to_house_tokens[msg.sender] = new uint[](0);\n  }\n\n  function get_address_to_house_tokens(address _my_address) public returns (uint[] tokens){\n    return address_to_house_tokens[_my_address];\n  }\n\n  //Called after insurer finishes an evaluation on the UI\n  function add_evaluation(uint _house_token,  uint _total_to_insure, uint _yearly_payment, \n    uint _yearly_stakeholder_dividend) public returns (bool success) {\n    House memory my_house = house_info[_house_token];\n    my_house.house_evaluator = msg.sender;\n    my_house.total_to_insure = _total_to_insure;\n    my_house.yearly_payment = _yearly_payment;\n    my_house.yearly_stakeholder_dividend = _yearly_stakeholder_dividend;\n    house_info[_house_token] = my_house;\n    return true;\n  }\n\n  function get_house_evaluator(uint _house_token) public returns (address evaluator) {\n\n    return house_info[_house_token].house_evaluator;\n  }\n\n  function get_homeowner(uint _house_token) public returns (address homeowner) {\n\n    return house_info[_house_token].house_owner;\n  }\n\n\n  function get_yearly_stakeholder_dividend(uint _house_token) public returns (uint amount) {\n    return house_info[_house_token].yearly_stakeholder_dividend;\n  }\n\n  function get_stake_amount(uint _stake_token) public returns (uint amount) {\n    return stake_info[_stake_token].amount_insured;\n  }\n\n  //When database hits submit, we add data to the chain  \n  function add_house_for_client(uint _house_token) public {\n\n    address _house_owner = msg.sender;\n    House memory my_house = House({house_owner: _house_owner, total_to_insure: 0, total_currently_insured: 0, \n        stake_tokens: new uint[](0), yearly_payment: 0, yearly_stakeholder_dividend: 0, \n        is_fully_insured: false, payment_for_year_completed:false, house_evaluator: company_address, is_claim_active:false, claim_amount: 0});\n\n    //if (add_client_address)\n    address_to_house_tokens[_house_owner].push(_house_token);\n    house_info[_house_token] = my_house;\n  }\n\n  //Run a script that calls this function montly if \n  //Also call this if the user declines their quote \n  function check_house_expired_or_declined(uint _house_token, bool is_declined) returns (bool success){\n    \n    House memory my_house = house_info[_house_token];\n\n    if (msg.sender != my_house.house_owner && msg.sender != company_address){\n      return false;\n    }\n\n    if (!my_house.is_fully_insured || is_declined) {\n      uint[] memory my_stake_tokens = my_house.stake_tokens;\n\n      //length_stake_tokent = \n      for (uint i=0; i<my_stake_tokens.length; i++) {\n        Stake memory stake = stake_info[my_stake_tokens[i]];\n\n        address stake_address = stake.stake_owner;\n        uint stake_amount = stake.amount_insured;\n\n        stake_address.transfer(stake_amount);\n        delete stake_info[my_stake_tokens[i]];\n\n      }\n\n      delete house_info[_house_token];\n\n      // emit House_Failed_To_Insure(_house_token, my_house.stake_tokens);\n      return true;\n    }\n    return false;\n    \n\n\n    //Maintain invariant that house can't be over-insured\n    \n    \n  }\n\n  //Called when funding is completed and user hits submit \n  function make_initial_payment(uint _house_token) payable returns (bool success) {\n\n    //Needs to check that house is fully insured\n\n        //msg.address and msg.value\n    House memory my_house = house_info[_house_token];\n\n  \n    uint timestamp = block.timestamp;\n    //Check if address of sender matches home owner\n    if (msg.sender != my_house.house_owner){\n      msg.sender.transfer(msg.value);\n      return false;\n    }\n\n    if (!my_house.is_fully_insured) {\n      msg.sender.transfer(msg.value);\n      return false;\n    }\n\n    if (my_house.payment_for_year_completed){\n      msg.sender.transfer(msg.value);\n      return false;\n    }\n\n    //Maintain that payment amount by sender matches  \n    uint my_yearly_payment = my_house.yearly_payment;\n    if (msg.value < my_yearly_payment) {\n      msg.sender.transfer(msg.value);\n      return false;\n    }\n\n    my_house.payment_for_year_completed = true;\n    if (msg.value > my_yearly_payment) {\n      uint difference = msg.value - my_yearly_payment;\n      msg.sender.transfer(difference);\n    }\n\n    house_info[_house_token] = my_house;\n\n    return payout_stakeholders(_house_token);\n  }\n\n  function get_payment_for_year_completed(uint _house_token) returns (bool success) {\n    return house_info[_house_token].payment_for_year_completed;\n  }\n\n  function payout_stakeholders(uint _house_token) internal returns (bool success){\n    House memory my_house = house_info[_house_token];\n    uint[] memory my_stake_tokens = my_house.stake_tokens;\n    uint my_yearly_dividend = my_house.yearly_stakeholder_dividend;\n    for (uint j = 0; j < my_stake_tokens.length; j++) {\n      Stake memory my_stake = stake_info[my_stake_tokens[j]];\n      address stake_owner = my_stake.stake_owner;\n      uint total_payout = uint(my_yearly_dividend * my_stake.amount_insured/my_house.total_to_insure);\n      stake_owner.transfer(total_payout);\n    }\n    return true;\n\n  }\n\n  //Both functions are called when Insurer calls functions \n  function create_insurance_claim (uint _house_token, uint _claim_amount) returns (bool success) { \n    House memory my_house = house_info[_house_token];\n    if (my_house.house_evaluator != msg.sender) {\n      return false;\n    }\n    my_house.is_claim_active = true;\n    my_house.claim_amount = _claim_amount;\n    house_info[_house_token] = my_house;\n\n    return accept_insurance_claim(_house_token);\n\n  }\n\n  function accept_insurance_claim (uint _house_token) internal returns (bool success) { \n    House memory my_house = house_info[_house_token];\n    address my_house_owner = my_house.house_owner;\n    if (!my_house.is_claim_active) {\n      return false;\n    }\n    my_house_owner.transfer(my_house.claim_amount);\n    uint remaining_payout = my_house.total_to_insure - my_house.claim_amount;\n    uint[] memory my_stake_tokens = my_house.stake_tokens;\n    for (uint j = 0; j < my_stake_tokens.length; j++) {\n      Stake memory my_stake = stake_info[my_stake_tokens[j]];\n      address stake_owner = my_stake.stake_owner;\n      uint total_payout = uint(remaining_payout * my_stake.amount_insured/my_house.total_to_insure);\n      stake_owner.transfer(total_payout);\n    }\n\n    delete house_info[_house_token];\n    return true;\n\n  }\n\n\n\n\n  // function add_stakeholder_address(address _stakeholder_address) public {\n  //   address_to_stake_tokens[_stakeholder_address] = new uint[](0);\n  // }\n\n  //payment_expected in WEI\n  function add_stake_for_stakeholder(uint _stake_token, uint _house_token, uint payment_expected) public payable returns (bool success){\n    address _stake_owner = msg.sender;\n\n    House memory house = house_info[_house_token];\n    if (house.is_fully_insured) {\n      msg.sender.transfer(msg.value);\n      return false;\n    }\n\n    uint remaining_to_insure = house.total_to_insure - (payment_expected + house.total_currently_insured);\n\n    if (remaining_to_insure < 0) {\n      msg.sender.transfer(msg.value);\n      //emit Stake_Contribution_Fail(_stake_token, msg.value);\n      return false;\n    }\n\n    \n    if (payment_expected > msg.value) { \n      msg.sender.transfer(msg.value);\n      return false;\n    }\n\n    if (payment_expected <= msg.value) {\n      uint over_payment = msg.value - payment_expected;\n      if (over_payment > 0) {\n        msg.sender.transfer(over_payment);\n      }\n    }\n\n    house.total_currently_insured = house.total_currently_insured + msg.value;\n\n    if (house.total_currently_insured == house.total_to_insure) {\n      house.is_fully_insured = true;\n    }\n\n    Stake memory stake = Stake({house_token: _house_token, stake_owner: _stake_owner,\n      amount_insured: msg.value});\n    \n    address_to_stake_tokens[_stake_owner].push(_stake_token);\n    stake_info[_stake_token] = stake;\n    house_info[_house_token] = house;\n\n    return true;\n\n  }\n\n  \n\n\n  //Payable function that takes yearly payments in the exact amount  \n  //\n\n  //Immediately pay back to stakeholders \n  \n\n  \n\n  //TODO: Paying out a plan\n\n\n  // function \n/*\n  //Sends yearly payments to stakeholders if yearly payment made correctly\n  //Otherwise homeowner has failed to pay, and reimburses the stakeholders\n<<<<<<< HEAD\n  function check_yearly_payments_complete {\n    if (msg.sender != company_address) {\n      return 0;\n    }\n\n\n=======\n  function check_yearly_payments_complete() {\n>>>>>>> 798849e9d14e111da64026a1773951a64e7fa2cb\n    for(i = 0; i < fully_insured_house_tokens.length; i++) {\n      if (fully_insured_house_tokens[i].is_fully_insured) {\n        fully_insured_house_tokens[i].is_fully_insured = false;\n\n        //emit yearly_House_Payment_Success (fully_insured_house_tokens[i], block.timestamp);\n      }\n      else {\n        //Throw em out of the smart contract, pay everyone back\n        House memory my_house = house_info[fully_insured_house_tokens[i]]\n        uint[] my_stake_tokens = my_house.stake_tokens;\n        for (uint j = 0; j < my_stake_tokens.length; j++) {\n          Stake memory my_stake = stake_info[my_stake_tokens[i]];\n          uint pay_back = my_stake.amount_insured;\n          address stake_owner = my_stake.stake_owner;\n          stake_owner.transfer(pay_back);\n        \n        }\n      }\n\n    } \n    return 1;\n  }\n\n<<<<<<< HEAD\n  function pay_insurance_claim (uint _house_token, uint payment_amount) {\n    if (msg.sender != company_address) {\n      return 0;\n    }\n=======\n  function pay_insurance_claim() {\n>>>>>>> 798849e9d14e111da64026a1773951a64e7fa2cb\n\n    House memory my_house = house_info[_house_token];\n\n\n    uint my_amount_insured = my_house.amount_insured;  \n    uint my_stake_tokens = my_house.stake_tokens;\n    if (my_amount_insured < payment_amount) {\n      //event failed\n      return 0;\n\n    }\n\n    uint amount_payback_stakeholders = my_amount_insured - payment_amount;\n    address homeowner = my_house.house_owner;\n\n    homeowner.transfer(payment_amount);\n\n    for (uint j = 0; j < my_stake_tokens.length; j++) {\n      Stake memory my_stake = stake_info[my_stake_tokens[i]];\n      uint dividend_amount = my_stake.percentage_staked; \n      uint pay_back = uint((my_stake.amount_insured * dividend_amount / 100));\n      address stake_owner = my_stake.stake_owner;\n      stake_owner.transfer(pay_back);\n    }\n    return 1;\n\n  }\n*/\n\n\n\n\n\n\n}\n\n\n",
  "sourcePath": "/Users/chrisharalampoudis/Desktop/CS6466/homeinsurev2/contracts/Insurance.sol",
  "compiler": {
    "name": "solc",
    "version": "0.4.21+commit.dfe3193c.Emscripten.clang"
  },
  "schemaVersion": "2.0.0",
  "updatedAt": "2018-05-13T18:41:46.166Z"
}