{
  "contractName": "Insurance",
  "abi": [
    {
      "constant": true,
      "inputs": [
        {
          "name": "",
          "type": "uint256"
        }
      ],
      "name": "insurers",
      "outputs": [
        {
          "name": "",
          "type": "address"
        }
      ],
      "payable": false,
      "stateMutability": "view",
      "type": "function"
    },
    {
      "constant": true,
      "inputs": [
        {
          "name": "",
          "type": "uint256"
        }
      ],
      "name": "clients",
      "outputs": [
        {
          "name": "",
          "type": "address"
        }
      ],
      "payable": false,
      "stateMutability": "view",
      "type": "function"
    },
    {
      "constant": false,
      "inputs": [
        {
          "name": "_client_token",
          "type": "uint256"
        }
      ],
      "name": "set_address_to_client_token",
      "outputs": [
        {
          "name": "",
          "type": "uint256"
        }
      ],
      "payable": false,
      "stateMutability": "nonpayable",
      "type": "function"
    },
    {
      "constant": false,
      "inputs": [
        {
          "name": "_house_token",
          "type": "uint256"
        },
        {
          "name": "_total_to_insure",
          "type": "uint256"
        }
      ],
      "name": "add_house_for_client",
      "outputs": [],
      "payable": false,
      "stateMutability": "nonpayable",
      "type": "function"
    },
    {
      "constant": false,
      "inputs": [
        {
          "name": "_insurer_token",
          "type": "uint256"
        }
      ],
      "name": "set_address_to_insurer_token",
      "outputs": [
        {
          "name": "",
          "type": "uint256"
        }
      ],
      "payable": false,
      "stateMutability": "nonpayable",
      "type": "function"
    },
    {
      "constant": false,
      "inputs": [
        {
          "name": "_stake_token",
          "type": "uint256"
        },
        {
          "name": "_amount_insured",
          "type": "uint256"
        }
      ],
      "name": "add_stake_for_insurer",
      "outputs": [],
      "payable": false,
      "stateMutability": "nonpayable",
      "type": "function"
    }
  ],
  "bytecode": "0x6060604052341561000f57600080fd5b61082b8061001e6000396000f300606060405260043610610078576000357c0100000000000000000000000000000000000000000000000000000000900463ffffffff168063279ca7a21461007d5780633d520e70146100b45780634551c2e8146100eb5780635055a2b314610117578063e5ee64c314610143578063f88af21d146101a6575b600080fd5b341561008857600080fd5b61009e6004808035906020019091905050610209565b6040518082815260200191505060405180910390f35b34156100bf57600080fd5b6100d56004808035906020019091905050610385565b6040518082815260200191505060405180910390f35b34156100f657600080fd5b6101156004808035906020019091908035906020019091905050610503565b005b341561012257600080fd5b61014160048080359060200190919080359060200190919050506105ee565b005b341561014e57600080fd5b61016460048080359060200190919050506106c8565b604051808273ffffffffffffffffffffffffffffffffffffffff1673ffffffffffffffffffffffffffffffffffffffff16815260200191505060405180910390f35b34156101b157600080fd5b6101c76004808035906020019091905050610707565b604051808273ffffffffffffffffffffffffffffffffffffffff1673ffffffffffffffffffffffffffffffffffffffff16815260200191505060405180910390f35b6000806000803373ffffffffffffffffffffffffffffffffffffffff1673ffffffffffffffffffffffffffffffffffffffff16815260200190815260200160002054111561025a5760029050610380565b816000803373ffffffffffffffffffffffffffffffffffffffff1673ffffffffffffffffffffffffffffffffffffffff16815260200190815260200160002081905550336003600084815260200190815260200160002060006101000a81548173ffffffffffffffffffffffffffffffffffffffff021916908373ffffffffffffffffffffffffffffffffffffffff160217905550600280548060010182816103039190610746565b9160005260206000209001600033909190916101000a81548173ffffffffffffffffffffffffffffffffffffffff021916908373ffffffffffffffffffffffffffffffffffffffff16021790555050600180548060010182816103669190610772565b916000526020600020900160008490919091505550600090505b919050565b600080600660003373ffffffffffffffffffffffffffffffffffffffff1673ffffffffffffffffffffffffffffffffffffffff1681526020019081526020016000205411156103d757600190506104fe565b600a80548060010182816103eb9190610772565b916000526020600020900160008490919091505550600b80548060010182816104149190610746565b9160005260206000209001600033909190916101000a81548173ffffffffffffffffffffffffffffffffffffffff021916908373ffffffffffffffffffffffffffffffffffffffff1602179055505081600660003373ffffffffffffffffffffffffffffffffffffffff1673ffffffffffffffffffffffffffffffffffffffff16815260200190815260200160002081905550336007600084815260200190815260200160002060006101000a81548173ffffffffffffffffffffffffffffffffffffffff021916908373ffffffffffffffffffffffffffffffffffffffff160217905550600090505b919050565b600061050d61079e565b6000803373ffffffffffffffffffffffffffffffffffffffff1673ffffffffffffffffffffffffffffffffffffffff16815260200190815260200160002054915060008211151561055a57fe5b6060604051908101604052808581526020018481526020016000815250905060046000838152602001908152602001600020805480600101828161059e9190610772565b916000526020600020900160008690919091505550806005600086815260200190815260200160002060008201518160000155602082015181600101556040820151816002015590505050505050565b60006105f86107c0565b600660003373ffffffffffffffffffffffffffffffffffffffff1673ffffffffffffffffffffffffffffffffffffffff16815260200190815260200160002054915060008211151561064657fe5b60408051908101604052808581526020018481525090506008600083815260200190815260200160002080548060010182816106829190610772565b9160005260206000209001600086909190915055508060096000868152602001908152602001600020600082015181600001556020820151816001015590505050505050565b600b818154811015156106d757fe5b90600052602060002090016000915054906101000a900473ffffffffffffffffffffffffffffffffffffffff1681565b60028181548110151561071657fe5b90600052602060002090016000915054906101000a900473ffffffffffffffffffffffffffffffffffffffff1681565b81548183558181151161076d5781836000526020600020918201910161076c91906107da565b5b505050565b8154818355818115116107995781836000526020600020918201910161079891906107da565b5b505050565b6060604051908101604052806000815260200160008152602001600081525090565b604080519081016040528060008152602001600081525090565b6107fc91905b808211156107f85760008160009055506001016107e0565b5090565b905600a165627a7a72305820a1a97a91a28700fc437f771489be011cd0ad9881d2db1666b1230d6dfd003ec40029",
  "source": "pragma solidity ^0.4.2;\n\ncontract Insurance {\n  struct House {\n    uint house_token;\n    //In ether?\n    uint total_to_insure;\n    //In ether?\n    uint amount_insured;\n  }\n\n  struct Stake {\n    uint stake_token;\n    // In ether?\n    uint amount_insured;\n  }\n\n  //Bidirectional Mapping: may not be needed \n  mapping(address => uint) private address_to_client_token;\n  uint[] private client_tokens;\n  address[] public clients;\n\n  mapping(uint => address) private client_token_to_address;\n\n  //Client to their houses they want insured\n  mapping(uint => uint[]) private client_token_to_house_tokens;\n\n  mapping(uint => House) private house_info;\n\n  //Insurer to which houses they are insuring\n  mapping(address => uint) private address_to_insurer_token;\n  mapping(uint => address) private insurer_token_to_address;\n\n  mapping(uint => uint[]) private insurer_token_to_stake_tokens;\n\n  mapping(uint => Stake) private stake_info;\n\n  uint[] private insurer_tokens;\n\n  address[] public insurers;\n\n  /* TODOs for the functions:\n  1.) What will be the smallest unit of currency? Wei\n  2.) Storing to each of the mappings\n  3.) Schedulized payments on addition to insurer (ETH-Alarm clock)\n  4.) Cancelling insurance (end of term) and reimbursement/cancellation \n  of scheduled payments\n  5.) Optional: Timing to fulfill insurance request/notification upon fulfillment \n\n  6. Optional: Allow users the option to refresh their insurance based on the price \n  of the house\n\n\n  */\n\n  //Getters and setters for all mappings above\n  //\n\n  function set_address_to_client_token(uint _client_token) public returns (uint) {\n    //Sanity check, the address is already associated with an insurer\n    if (address_to_client_token[msg.sender] > 0){\n      return 2;\n    }\n\n    address_to_client_token[msg.sender] = _client_token;\n    client_token_to_address[_client_token] = msg.sender;\n    clients.push(msg.sender);\n    client_tokens.push(_client_token);\n    return 0;\n  }\n\n\n\n  function add_house_for_client(uint _house_token, uint _total_to_insure) public {\n\n    uint client_token = address_to_client_token[msg.sender];\n\n    //Sanity check, add throw error \n    assert (client_token > 0);\n\n    House memory my_house = House({house_token: _house_token, total_to_insure: _total_to_insure, \n        amount_insured: 0});\n    client_token_to_house_tokens[client_token].push(_house_token);\n    house_info[_house_token] = my_house;\n\n  }\n\n  function set_address_to_insurer_token(uint _insurer_token) public returns (uint) {\n    //Sanity check, the address is already associated with an insurer\n    if (address_to_insurer_token[msg.sender] > 0){\n      return 1; \n    }\n\n    insurer_tokens.push(_insurer_token);\n    insurers.push(msg.sender);\n    address_to_insurer_token[msg.sender] = _insurer_token;\n    insurer_token_to_address[_insurer_token] = msg.sender;\n    return 0;\n  }\n\n  function add_stake_for_insurer(uint _stake_token, uint _amount_insured) public {\n    uint insurer_token = address_to_insurer_token[msg.sender];\n\n    //Sanity check, add throw error \n    assert (insurer_token > 0);\n\n    Stake memory stake = Stake({stake_token: _stake_token, \n      amount_insured: _amount_insured});\n    insurer_token_to_stake_tokens[insurer_token].push(_stake_token);\n    stake_info[_stake_token] = stake;\n\n  }\n\n  \n\n\n\n\n}\n\n\n",
  "sourcePath": "/Users/kmurali/Box Sync/Crypto/homeinsurev2/contracts/Insurance.sol",
  "compiler": {
    "name": "solc",
    "version": "0.4.19+commit.c4cbbb05.Emscripten.clang"
  },
  "schemaVersion": "1.0.1",
  "updatedAt": "2018-04-18T01:24:28.080Z"
}