{
  "contractName": "Insurance",
  "abi": [
    {
      "constant": true,
      "inputs": [
        {
          "name": "",
          "type": "uint256"
        }
      ],
      "name": "house_info",
      "outputs": [
        {
          "name": "house_owner",
          "type": "address"
        },
        {
          "name": "total_to_insure",
          "type": "uint256"
        },
        {
          "name": "percentage_insured",
          "type": "uint256"
        },
        {
          "name": "minimum_stake_payment",
          "type": "uint256"
        },
        {
          "name": "monthly_payment",
          "type": "uint256"
        },
        {
          "name": "monthly_stakeholder_dividend",
          "type": "uint256"
        },
        {
          "name": "is_fully_insured",
          "type": "bool"
        },
        {
          "name": "payment_for_month_completed",
          "type": "bool"
        }
      ],
      "payable": false,
      "stateMutability": "view",
      "type": "function"
    },
    {
      "constant": true,
      "inputs": [
        {
          "name": "",
          "type": "address"
        }
      ],
      "name": "balances",
      "outputs": [
        {
          "name": "",
          "type": "uint256"
        }
      ],
      "payable": false,
      "stateMutability": "view",
      "type": "function"
    },
    {
      "constant": true,
      "inputs": [
        {
          "name": "",
          "type": "uint256"
        }
      ],
      "name": "fully_insured_house_tokens",
      "outputs": [
        {
          "name": "",
          "type": "uint256"
        }
      ],
      "payable": false,
      "stateMutability": "view",
      "type": "function"
    },
    {
      "constant": true,
      "inputs": [],
      "name": "company_address",
      "outputs": [
        {
          "name": "",
          "type": "address"
        }
      ],
      "payable": false,
      "stateMutability": "view",
      "type": "function"
    },
    {
      "constant": true,
      "inputs": [
        {
          "name": "",
          "type": "address"
        },
        {
          "name": "",
          "type": "uint256"
        }
      ],
      "name": "address_to_stake_tokens",
      "outputs": [
        {
          "name": "",
          "type": "uint256"
        }
      ],
      "payable": false,
      "stateMutability": "view",
      "type": "function"
    },
    {
      "constant": true,
      "inputs": [
        {
          "name": "",
          "type": "address"
        },
        {
          "name": "",
          "type": "uint256"
        }
      ],
      "name": "address_to_house_tokens",
      "outputs": [
        {
          "name": "",
          "type": "uint256"
        }
      ],
      "payable": false,
      "stateMutability": "view",
      "type": "function"
    },
    {
      "constant": true,
      "inputs": [
        {
          "name": "",
          "type": "uint256"
        }
      ],
      "name": "stake_info",
      "outputs": [
        {
          "name": "house_token",
          "type": "uint256"
        },
        {
          "name": "stake_owner",
          "type": "address"
        },
        {
          "name": "amount_insured",
          "type": "uint256"
        },
        {
          "name": "percentage_staked",
          "type": "uint256"
        }
      ],
      "payable": false,
      "stateMutability": "view",
      "type": "function"
    },
    {
      "anonymous": false,
      "inputs": [
        {
          "indexed": false,
          "name": "description",
          "type": "bytes32"
        }
      ],
      "name": "Error",
      "type": "event"
    },
    {
      "anonymous": false,
      "inputs": [
        {
          "indexed": false,
          "name": "house_token",
          "type": "uint256"
        },
        {
          "indexed": false,
          "name": "stake_tokens",
          "type": "uint256[]"
        }
      ],
      "name": "House_Fully_Insured_Success",
      "type": "event"
    },
    {
      "anonymous": false,
      "inputs": [
        {
          "indexed": false,
          "name": "house_token",
          "type": "uint256"
        },
        {
          "indexed": false,
          "name": "stake_tokens",
          "type": "uint256[]"
        }
      ],
      "name": "House_Failed_To_Insure",
      "type": "event"
    },
    {
      "anonymous": false,
      "inputs": [
        {
          "indexed": false,
          "name": "house_token",
          "type": "uint256"
        },
        {
          "indexed": false,
          "name": "timestamtimestamp",
          "type": "uint256"
        }
      ],
      "name": "Monthly_House_Payment_Success",
      "type": "event"
    },
    {
      "anonymous": false,
      "inputs": [
        {
          "indexed": false,
          "name": "house_token",
          "type": "uint256"
        },
        {
          "indexed": false,
          "name": "",
          "type": "uint256"
        },
        {
          "indexed": false,
          "name": "error",
          "type": "bytes32"
        }
      ],
      "name": "Monthly_House_Payment_Failed",
      "type": "event"
    },
    {
      "anonymous": false,
      "inputs": [
        {
          "indexed": false,
          "name": "stake_token",
          "type": "uint256"
        },
        {
          "indexed": false,
          "name": "stake_amount_insured",
          "type": "uint256"
        }
      ],
      "name": "Stake_Contribution",
      "type": "event"
    },
    {
      "anonymous": false,
      "inputs": [
        {
          "indexed": false,
          "name": "stake_token",
          "type": "uint256"
        },
        {
          "indexed": false,
          "name": "stake_amount_insured",
          "type": "uint256"
        }
      ],
      "name": "Stake_Contribution_Fail",
      "type": "event"
    },
    {
      "constant": false,
      "inputs": [],
      "name": "initialize_contract",
      "outputs": [],
      "payable": false,
      "stateMutability": "nonpayable",
      "type": "function"
    },
    {
      "constant": false,
      "inputs": [],
      "name": "add_client_address",
      "outputs": [],
      "payable": false,
      "stateMutability": "nonpayable",
      "type": "function"
    },
    {
      "constant": false,
      "inputs": [
        {
          "name": "_my_address",
          "type": "address"
        }
      ],
      "name": "get_address_to_house_tokens",
      "outputs": [
        {
          "name": "tokens",
          "type": "uint256[]"
        }
      ],
      "payable": false,
      "stateMutability": "nonpayable",
      "type": "function"
    },
    {
      "constant": false,
      "inputs": [
        {
          "name": "_house_token",
          "type": "uint256"
        },
        {
          "name": "_total_to_insure",
          "type": "uint256"
        },
        {
          "name": "_minimum_stake_payment",
          "type": "uint256"
        },
        {
          "name": "_monthly_payment",
          "type": "uint256"
        },
        {
          "name": "_monthly_stakeholder_dividend",
          "type": "uint256"
        }
      ],
      "name": "add_house_for_client",
      "outputs": [],
      "payable": false,
      "stateMutability": "nonpayable",
      "type": "function"
    },
    {
      "constant": false,
      "inputs": [
        {
          "name": "_stakeholder_address",
          "type": "address"
        }
      ],
      "name": "add_stakeholder_address",
      "outputs": [],
      "payable": false,
      "stateMutability": "nonpayable",
      "type": "function"
    },
    {
      "constant": false,
      "inputs": [
        {
          "name": "_stake_token",
          "type": "uint256"
        },
        {
          "name": "_house_token",
          "type": "uint256"
        },
        {
          "name": "percentage_purchased",
          "type": "uint256"
        }
      ],
      "name": "add_stake_for_stakeholder",
      "outputs": [
        {
          "name": "success",
          "type": "bool"
        }
      ],
      "payable": true,
      "stateMutability": "payable",
      "type": "function"
    },
    {
      "constant": false,
      "inputs": [
        {
          "name": "_house_token",
          "type": "uint256"
        }
      ],
      "name": "check_house_fully_insured",
      "outputs": [
        {
          "name": "success",
          "type": "bool"
        }
      ],
      "payable": false,
      "stateMutability": "nonpayable",
      "type": "function"
    },
    {
      "constant": false,
      "inputs": [
        {
          "name": "_house_token",
          "type": "uint256"
        }
      ],
      "name": "make_montly_payment",
      "outputs": [
        {
          "name": "success",
          "type": "bool"
        }
      ],
      "payable": true,
      "stateMutability": "payable",
      "type": "function"
    }
  ],
  "bytecode": "0x608060405234801561001057600080fd5b50611bee806100206000396000f3006080604052600436106100db576000357c0100000000000000000000000000000000000000000000000000000000900463ffffffff16806327423760146100e057806327e235e3146101865780632b9bcddc146101dd578063324d810f1461021e57806335a28eb3146102b6578063471213061461030d578063644819131461036e57806392439d32146103ba57806397a333d1146103f25780639b5ac84e146104095780639b8ca89c1461045e578063a16845f5146104bf578063ab0f059014610502578063b84694f214610547578063fa7e55941461055e575b600080fd5b3480156100ec57600080fd5b5061010b600480360381019080803590602001909291905050506105e0565b604051808973ffffffffffffffffffffffffffffffffffffffff1673ffffffffffffffffffffffffffffffffffffffff16815260200188815260200187815260200186815260200185815260200184815260200183151515158152602001821515151581526020019850505050505050505060405180910390f35b34801561019257600080fd5b506101c7600480360381019080803573ffffffffffffffffffffffffffffffffffffffff169060200190929190505050610662565b6040518082815260200191505060405180910390f35b3480156101e957600080fd5b506102086004803603810190808035906020019092919050505061067a565b6040518082815260200191505060405180910390f35b34801561022a57600080fd5b5061025f600480360381019080803573ffffffffffffffffffffffffffffffffffffffff16906020019092919050505061069d565b6040518080602001828103825283818151815260200191508051906020019060200280838360005b838110156102a2578082015181840152602081019050610287565b505050509050019250505060405180910390f35b3480156102c257600080fd5b506102cb610734565b604051808273ffffffffffffffffffffffffffffffffffffffff1673ffffffffffffffffffffffffffffffffffffffff16815260200191505060405180910390f35b34801561031957600080fd5b50610358600480360381019080803573ffffffffffffffffffffffffffffffffffffffff16906020019092919080359060200190929190505050610759565b6040518082815260200191505060405180910390f35b6103a0600480360381019080803590602001909291908035906020019092919080359060200190929190505050610789565b604051808215151515815260200191505060405180910390f35b6103d860048036038101908080359060200190929190505050610c37565b604051808215151515815260200191505060405180910390f35b3480156103fe57600080fd5b50610407610fc8565b005b34801561041557600080fd5b5061045c600480360381019080803590602001909291908035906020019092919080359060200190929190803590602001909291908035906020019092919050505061104e565b005b34801561046a57600080fd5b506104a9600480360381019080803573ffffffffffffffffffffffffffffffffffffffff1690602001909291908035906020019092919050505061124b565b6040518082815260200191505060405180910390f35b3480156104cb57600080fd5b50610500600480360381019080803573ffffffffffffffffffffffffffffffffffffffff16906020019092919050505061127b565b005b34801561050e57600080fd5b5061052d60048036038101908080359060200190929190505050611302565b604051808215151515815260200191505060405180910390f35b34801561055357600080fd5b5061055c61170a565b005b34801561056a57600080fd5b506105896004803603810190808035906020019092919050505061174c565b604051808581526020018473ffffffffffffffffffffffffffffffffffffffff1673ffffffffffffffffffffffffffffffffffffffff16815260200183815260200182815260200194505050505060405180910390f35b60036020528060005260406000206000915090508060000160009054906101000a900473ffffffffffffffffffffffffffffffffffffffff16908060010154908060020154908060040154908060050154908060060154908060070160009054906101000a900460ff16908060070160019054906101000a900460ff16905088565b60016020528060005260406000206000915090505481565b60048181548110151561068957fe5b906000526020600020016000915090505481565b6060600260008373ffffffffffffffffffffffffffffffffffffffff1673ffffffffffffffffffffffffffffffffffffffff16815260200190815260200160002080548060200260200160405190810160405280929190818152602001828054801561072857602002820191906000526020600020905b815481526020019060010190808311610714575b50505050509050919050565b6000809054906101000a900473ffffffffffffffffffffffffffffffffffffffff1681565b60056020528160005260406000208181548110151561077457fe5b90600052602060002001600091509150505481565b600080610794611a3c565b60008060006107a1611aa3565b339550600360008a815260200190815260200160002061012060405190810160405290816000820160009054906101000a900473ffffffffffffffffffffffffffffffffffffffff1673ffffffffffffffffffffffffffffffffffffffff1673ffffffffffffffffffffffffffffffffffffffff16815260200160018201548152602001600282015481526020016003820180548060200260200160405190810160405280929190818152602001828054801561087d57602002820191906000526020600020905b815481526020019060010190808311610869575b505050505081526020016004820154815260200160058201548152602001600682015481526020016007820160009054906101000a900460ff161515151581526020016007820160019054906101000a900460ff16151515158152505094508460e0015115610936573373ffffffffffffffffffffffffffffffffffffffff166108fc349081150290604051600060405180830381858888f1935050505015801561092c573d6000803e3d6000fd5b5060009650610c2a565b8460400151606403935083881115610998573373ffffffffffffffffffffffffffffffffffffffff166108fc349081150290604051600060405180830381858888f1935050505015801561098e573d6000803e3d6000fd5b5060009650610c2a565b87856020015102925034831115610a38573373ffffffffffffffffffffffffffffffffffffffff166108fc349081150290604051600060405180830381858888f193505050501580156109ef573d6000803e3d6000fd5b507f8cede6b4ab2dfbcabf55acb74f99e4bf04eec57df0662d64e508a94c08aeedcb8a34604051808381526020018281526020019250505060405180910390a160009650610c2a565b3483111515610ad75782340391507fbc0d9800abbcab8897b0b364203debebe1a6190ca952c2a1de76b641a2e2fc4a8a34604051808381526020018281526020019250505060405180910390a16000821115610ad6573373ffffffffffffffffffffffffffffffffffffffff166108fc839081150290604051600060405180830381858888f19350505050158015610ad4573d6000803e3d6000fd5b505b5b87856040015101856040018181525050606485604001511415610b065760018560e00190151590811515815250505b6080604051908101604052808a81526020018773ffffffffffffffffffffffffffffffffffffffff168152602001848152602001898152509050600560008773ffffffffffffffffffffffffffffffffffffffff1673ffffffffffffffffffffffffffffffffffffffff1681526020019081526020016000208a908060018154018082558091505090600182039060005260206000200160009091929091909150555080600660008c81526020019081526020016000206000820151816000015560208201518160010160006101000a81548173ffffffffffffffffffffffffffffffffffffffff021916908373ffffffffffffffffffffffffffffffffffffffff1602179055506040820151816002015560608201518160030155905050600196505b5050505050509392505050565b6000610c41611a3c565b600080600080600080600360008a815260200190815260200160002061012060405190810160405290816000820160009054906101000a900473ffffffffffffffffffffffffffffffffffffffff1673ffffffffffffffffffffffffffffffffffffffff1673ffffffffffffffffffffffffffffffffffffffff168152602001600182015481526020016002820154815260200160038201805480602002602001604051908101604052809291908181526020018280548015610d2357602002820191906000526020600020905b815481526020019060010190808311610d0f575b505050505081526020016004820154815260200160058201548152602001600682015481526020016007820160009054906101000a900460ff161515151581526020016007820160019054906101000a900460ff1615151515815250509650429550866000015173ffffffffffffffffffffffffffffffffffffffff163373ffffffffffffffffffffffffffffffffffffffff16141515610e39577f486f6d656f776e657220646f6573206e6f74206d61746368206164647265737394507fec629659a0bced8af82a97ede90365c8a0407c3e13f58d06273ae49e92bc3492898787604051808481526020018381526020018260001916600019168152602001935050505060405180910390a160009750610fbc565b86610100015115610ebf577f5061796d656e7420616c726561647920636f6d706c657465640000000000000093507fec629659a0bced8af82a97ede90365c8a0407c3e13f58d06273ae49e92bc3492898786604051808481526020018381526020018260001916600019168152602001935050505060405180910390a160009750610fbc565b8660a00151925082341015610f49577f5061796d656e74206e6f742073756666696369656e740000000000000000000091507fec629659a0bced8af82a97ede90365c8a0407c3e13f58d06273ae49e92bc3492898784604051808481526020018381526020018260001916600019168152602001935050505060405180910390a160009750610fbc565b60018761010001901515908115158152505082341115610fb05782340390503373ffffffffffffffffffffffffffffffffffffffff166108fc829081150290604051600060405180830381858888f19350505050158015610fae573d6000803e3d6000fd5b505b610fb98961179c565b97505b50505050505050919050565b6000604051908082528060200260200182016040528015610ff85781602001602082028038833980820191505090505b50600260003373ffffffffffffffffffffffffffffffffffffffff1673ffffffffffffffffffffffffffffffffffffffff168152602001908152602001600020908051906020019061104b929190611ae2565b50565b6000611058611a3c565b339150610120604051908101604052808373ffffffffffffffffffffffffffffffffffffffff1681526020018781526020016000815260200160006040519080825280602002602001820160405280156110c15781602001602082028038833980820191505090505b508152602001868152602001858152602001848152602001600015158152602001600015158152509050600260008373ffffffffffffffffffffffffffffffffffffffff1673ffffffffffffffffffffffffffffffffffffffff168152602001908152602001600020879080600181540180825580915050906001820390600052602060002001600090919290919091505550806003600089815260200190815260200160002060008201518160000160006101000a81548173ffffffffffffffffffffffffffffffffffffffff021916908373ffffffffffffffffffffffffffffffffffffffff160217905550602082015181600101556040820151816002015560608201518160030190805190602001906111df929190611b2f565b506080820151816004015560a0820151816005015560c0820151816006015560e08201518160070160006101000a81548160ff0219169083151502179055506101008201518160070160016101000a81548160ff02191690831515021790555090505050505050505050565b60026020528160005260406000208181548110151561126657fe5b90600052602060002001600091509150505481565b60006040519080825280602002602001820160405280156112ab5781602001602082028038833980820191505090505b50600560008373ffffffffffffffffffffffffffffffffffffffff1673ffffffffffffffffffffffffffffffffffffffff16815260200190815260200160002090805190602001906112fe929190611ae2565b5050565b600061130c611a3c565b60606000611318611aa3565b60008060008060009054906101000a900473ffffffffffffffffffffffffffffffffffffffff1673ffffffffffffffffffffffffffffffffffffffff163373ffffffffffffffffffffffffffffffffffffffff1614151561137c57600097506116fe565b600360008a815260200190815260200160002061012060405190810160405290816000820160009054906101000a900473ffffffffffffffffffffffffffffffffffffffff1673ffffffffffffffffffffffffffffffffffffffff1673ffffffffffffffffffffffffffffffffffffffff16815260200160018201548152602001600282015481526020016003820180548060200260200160405190810160405280929190818152602001828054801561145557602002820191906000526020600020905b815481526020019060010190808311611441575b505050505081526020016004820154815260200160058201548152602001600682015481526020016007820160009054906101000a900460ff161515151581526020016007820160019054906101000a900460ff16151515158152505096508660200151876040015110156116f55786606001519550600094505b8551851015611653576006600087878151811015156114eb57fe5b90602001906020020151815260200190815260200160002060806040519081016040529081600082015481526020016001820160009054906101000a900473ffffffffffffffffffffffffffffffffffffffff1673ffffffffffffffffffffffffffffffffffffffff1673ffffffffffffffffffffffffffffffffffffffff16815260200160028201548152602001600382015481525050935083602001519250836040015191508273ffffffffffffffffffffffffffffffffffffffff166108fc839081150290604051600060405180830381858888f193505050501580156115d9573d6000803e3d6000fd5b506006600087878151811015156115ec57fe5b9060200190602002015181526020019081526020016000206000808201600090556001820160006101000a81549073ffffffffffffffffffffffffffffffffffffffff021916905560028201600090556003820160009055505084806001019550506114d0565b600360008a8152602001908152602001600020600080820160006101000a81549073ffffffffffffffffffffffffffffffffffffffff0219169055600182016000905560028201600090556003820160006116ae9190611b7c565b6004820160009055600582016000905560068201600090556007820160006101000a81549060ff02191690556007820160016101000a81549060ff021916905550506116fd565b8660e0015190505b5b50505050505050919050565b336000806101000a81548173ffffffffffffffffffffffffffffffffffffffff021916908373ffffffffffffffffffffffffffffffffffffffff160217905550565b60066020528060005260406000206000915090508060000154908060010160009054906101000a900473ffffffffffffffffffffffffffffffffffffffff16908060020154908060030154905084565b60006117a6611a3c565b60606000806117b3611aa3565b6000806000600360008b815260200190815260200160002061012060405190810160405290816000820160009054906101000a900473ffffffffffffffffffffffffffffffffffffffff1673ffffffffffffffffffffffffffffffffffffffff1673ffffffffffffffffffffffffffffffffffffffff16815260200160018201548152602001600282015481526020016003820180548060200260200160405190810160405280929190818152602001828054801561189157602002820191906000526020600020905b81548152602001906001019080831161187d575b505050505081526020016004820154815260200160058201548152602001600682015481526020016007820160009054906101000a900460ff161515151581526020016007820160019054906101000a900460ff1615151515815250509750876060015196508760c001519550600094505b8651851015611a2b5760066000888781518110151561191e57fe5b90602001906020020151815260200190815260200160002060806040519081016040529081600082015481526020016001820160009054906101000a900473ffffffffffffffffffffffffffffffffffffffff1673ffffffffffffffffffffffffffffffffffffffff1673ffffffffffffffffffffffffffffffffffffffff168152602001600282015481526020016003820154815250509350836060015192508360200151915060648387028115156119d457fe5b0490508173ffffffffffffffffffffffffffffffffffffffff166108fc829081150290604051600060405180830381858888f19350505050158015611a1d573d6000803e3d6000fd5b508480600101955050611903565b600198505050505050505050919050565b61012060405190810160405280600073ffffffffffffffffffffffffffffffffffffffff1681526020016000815260200160008152602001606081526020016000815260200160008152602001600081526020016000151581526020016000151581525090565b60806040519081016040528060008152602001600073ffffffffffffffffffffffffffffffffffffffff16815260200160008152602001600081525090565b828054828255906000526020600020908101928215611b1e579160200282015b82811115611b1d578251825591602001919060010190611b02565b5b509050611b2b9190611b9d565b5090565b828054828255906000526020600020908101928215611b6b579160200282015b82811115611b6a578251825591602001919060010190611b4f565b5b509050611b789190611b9d565b5090565b5080546000825590600052602060002090810190611b9a9190611b9d565b50565b611bbf91905b80821115611bbb576000816000905550600101611ba3565b5090565b905600a165627a7a7230582094886679cddfaad21b4f9bfb965c1701335dc682ed66b4cd6e22e2303ca1e2050029",
  "source": "pragma solidity ^0.4.2;\n\ncontract Insurance {\n\n\n  event Error (bytes32 description);\n\n  event House_Fully_Insured_Success (uint house_token, uint[] stake_tokens);\n\n  event House_Failed_To_Insure (uint house_token, uint[] stake_tokens);\n  // event House_Fully_Insured_Success (uint house_token, address house_owner,\n  //     uint[] stake_tokens, address[] stakeholders);\n\n  // event House_Failed_To_Insure (uint house_token, address house_owner,\n  //     uint[] stake_tokens, address[] stakeholders);\n\n  event Monthly_House_Payment_Success (uint house_token, uint timestamtimestamp);\n\n  event Monthly_House_Payment_Failed (uint house_token, uint , bytes32 error);\n\n  event Stake_Contribution (uint stake_token, uint stake_amount_insured);\n\n  event Stake_Contribution_Fail (uint stake_token, uint stake_amount_insured);\n\n\n  address public company_address;\n\n  function initialize_contract() { \n    company_address = msg.sender;\n  }\n\n\n  \n  struct House {\n    //uint house_token;\n    address house_owner;\n\n    //In Wei\n    uint total_to_insure;\n\n    //Percentage\n    uint percentage_insured;\n\n    uint[] stake_tokens;\n\n    //Each stake will have to be a multiple of this minimum stake - 1% \n    uint minimum_stake_payment;\n\n    //FROM talking with Sam and Chris, a user will insure for 10,000, but make a \n    //11,000 payment towards us. $1000 will stay in the contract, as our company cut \n    //And 10,000 will be distributed back towards the stakeholder \n    //\n\n    uint monthly_payment;\n\n    uint monthly_stakeholder_dividend;\n\n    bool is_fully_insured;\n\n    bool payment_for_month_completed;\n    //uint total_insurance_contribution\n  }\n\n  struct Stake {\n    //uint stake_token;\n    uint house_token;\n    address stake_owner;\n    // In ether?\n    uint amount_insured;\n    uint percentage_staked;\n  }\n\n  //Bidirectional Mapping: may not be needed \n  //mapping(address => uint) private address_to_client_token;\n  //address[] public clients;\n\n  mapping(address => uint) public balances;\n\n  //mapping(uint => address) private client_token_to_address;\n\n  //Client to their houses they want insured\n  mapping(address => uint[]) public address_to_house_tokens;\n\n  mapping(uint => House) public house_info;\n\n  uint[] public fully_insured_house_tokens;\n\n  //Insurer to which houses they are insuring\n  //mapping(address => uint) private address_to_insurer_token;\n  \n  mapping(address => uint[]) public address_to_stake_tokens;\n\n  mapping(uint => Stake) public stake_info;\n  //uint[] private insurer_tokens;\n\n  //address[] public insurers;\n\n  /* TODOs for the functions:\n  1.) What will be the smallest unit of currency? Wei\n  2.) Storing to each of the mappings\n  3.) Schedulized payments on addition to insurer (ETH-Alarm clock)\n  4.) Cancelling insurance (end of term) and reimbursement/cancellation \n  of scheduled payments\n  5.) Optional: Timing to fulfill insurance request/notification upon fulfillment \n\n  6. Optional: Allow users the option to refresh their insurance based on the price \n  of the house\n\n\n  */\n\n  //Getters and setters for all mappings above\n  //\n\n\n  function add_client_address() public {\n    //client_addresses.push(_house_owner);\n    address_to_house_tokens[msg.sender] = new uint[](0);\n  }\n\n  function get_address_to_house_tokens(address _my_address) public returns (uint[] tokens){\n    return address_to_house_tokens[_my_address];\n  }\n\n\n\n  function add_house_for_client(uint _house_token, uint _total_to_insure, uint _minimum_stake_payment, uint _monthly_payment, \n    uint _monthly_stakeholder_dividend) public {\n\n    address _house_owner = msg.sender;\n    House memory my_house = House({house_owner: _house_owner, total_to_insure: _total_to_insure, \n        percentage_insured: 0, stake_tokens: new uint[](0), minimum_stake_payment: _minimum_stake_payment, \n        monthly_payment: _monthly_payment, monthly_stakeholder_dividend: _monthly_stakeholder_dividend, is_fully_insured: false,\n        payment_for_month_completed:false });\n\n    address_to_house_tokens[_house_owner].push(_house_token);\n    house_info[_house_token] = my_house;\n\n  }\n\n  function add_stakeholder_address(address _stakeholder_address) public {\n    address_to_stake_tokens[_stakeholder_address] = new uint[](0);\n  }\n\n  function add_stake_for_stakeholder(uint _stake_token, uint _house_token, uint percentage_purchased) public payable returns (bool success){\n    //TODO: Calculate percentage_staked\n    address _stake_owner = msg.sender;\n\n    House memory house = house_info[_house_token];\n    if (house.is_fully_insured) {\n      msg.sender.transfer(msg.value);\n      return false;\n    }\n\n    uint remaining_to_insure = 100 - house.percentage_insured;\n    if (percentage_purchased > remaining_to_insure) {\n      msg.sender.transfer(msg.value);\n      //emit Stake_Contribution_Fail(_stake_token, msg.value);\n      return false;\n    }\n\n    \n\n    uint payment_due = house.total_to_insure * percentage_purchased;\n\n    if (payment_due > msg.value) { \n      msg.sender.transfer(msg.value);\n      emit Stake_Contribution_Fail (_stake_token, msg.value);\n      return false;\n    }\n\n    if (payment_due <= msg.value) {\n      uint over_payment = msg.value - payment_due;\n      emit Stake_Contribution (_stake_token, msg.value);\n      if (over_payment > 0) {\n        msg.sender.transfer(over_payment);\n      }\n    }\n\n    house.percentage_insured = house.percentage_insured + percentage_purchased;\n    if (house.percentage_insured == 100) {\n      house.is_fully_insured = true;\n    }\n\n    Stake memory stake = Stake({house_token: _house_token, stake_owner: _stake_owner,\n      amount_insured: payment_due, percentage_staked: percentage_purchased});\n    \n    address_to_stake_tokens[_stake_owner].push(_stake_token);\n    stake_info[_stake_token] = stake;\n    return true;\n\n  }\n\n  //Function house_expired\n  function check_house_fully_insured(uint _house_token) returns (bool success){\n    if (msg.sender != company_address) {\n      return false;\n    }\n\n    House memory my_house = house_info[_house_token];\n\n    if (my_house.percentage_insured < my_house.total_to_insure) {\n      uint[] memory my_stake_tokens = my_house.stake_tokens;\n\n      //length_stake_tokent = \n      for (uint i=0; i<my_stake_tokens.length; i++) {\n        Stake memory stake = stake_info[my_stake_tokens[i]];\n\n        address stake_address = stake.stake_owner;\n        uint stake_amount = stake.amount_insured;\n\n        stake_address.transfer(stake_amount);\n        delete stake_info[my_stake_tokens[i]];\n\n      }\n\n      delete house_info[_house_token];\n\n      // emit House_Failed_To_Insure(_house_token, my_house.stake_tokens);\n\n    }\n    else {\n\n      //\n      bool is_insured = my_house.is_fully_insured;\n\n\n      // emit House_Fully_Insured_Success(_house_token, my_house.stake_tokens);\n    }\n\n\n    //Maintain invariant that house can't be over-insured\n    \n    \n  }\n\n\n\n  //Payable function that takes monthly payments in the exact amount  \n  //\n\n  //Immediately pay back to stakeholders \n  \n\n  \n  function make_montly_payment(uint _house_token) payable returns (bool success) {\n    //msg.address and msg.value\n    House memory my_house = house_info[_house_token];\n    uint timestamp = block.timestamp;\n    //Check if address of sender matches home owner\n    if (msg.sender != my_house.house_owner){\n      bytes32 error1 = \"Homeowner does not match address\";\n      emit Monthly_House_Payment_Failed(_house_token, timestamp, error1);\n      return false;\n    }\n\n    if (my_house.payment_for_month_completed){\n      bytes32 error2 = \"Payment already completed\";\n      emit Monthly_House_Payment_Failed(_house_token, timestamp, error2);\n      return false;\n    }\n\n    //Maintain that payment amount by sender matches  \n    uint my_monthly_payment = my_house.monthly_payment;\n    if (msg.value < my_monthly_payment) {\n      bytes32 error3 = \"Payment not sufficient\";\n      emit Monthly_House_Payment_Failed(_house_token, timestamp, error3);\n      return false;\n    }\n\n    my_house.payment_for_month_completed = true;\n    if (msg.value > my_monthly_payment) {\n      uint difference = msg.value - my_monthly_payment;\n      msg.sender.transfer(difference);\n    }\n\n    return payback_stakeholders(_house_token);\n\n  }\n\n  function payback_stakeholders(uint _house_token) internal returns (bool success){\n    House memory my_house = house_info[_house_token];\n    uint[] memory my_stake_tokens = my_house.stake_tokens;\n    uint my_monthly_dividend = my_house.monthly_stakeholder_dividend;\n    for (uint j = 0; j < my_stake_tokens.length; j++) {\n      Stake memory my_stake = stake_info[my_stake_tokens[j]];\n      uint dividend_amount = my_stake.percentage_staked;\n      address stake_owner = my_stake.stake_owner;\n      uint total_payout = uint(my_monthly_dividend * dividend_amount / (100));\n      stake_owner.transfer(total_payout);\n    }\n    return true;\n\n  }\n\n\n  // function \n/*\n  //Sends monthly payments to stakeholders if monthly payment made correctly\n  //Otherwise homeowner has failed to pay, and reimburses the stakeholders\n<<<<<<< HEAD\n  function check_monthly_payments_complete {\n    if (msg.sender != company_address) {\n      return 0;\n    }\n\n\n=======\n  function check_monthly_payments_complete() {\n>>>>>>> 798849e9d14e111da64026a1773951a64e7fa2cb\n    for(i = 0; i < fully_insured_house_tokens.length; i++) {\n      if (fully_insured_house_tokens[i].is_fully_insured) {\n        fully_insured_house_tokens[i].is_fully_insured = false;\n\n        //emit Monthly_House_Payment_Success (fully_insured_house_tokens[i], block.timestamp);\n      }\n      else {\n        //Throw em out of the smart contract, pay everyone back\n        House memory my_house = house_info[fully_insured_house_tokens[i]]\n        uint[] my_stake_tokens = my_house.stake_tokens;\n        for (uint j = 0; j < my_stake_tokens.length; j++) {\n          Stake memory my_stake = stake_info[my_stake_tokens[i]];\n          uint pay_back = my_stake.amount_insured;\n          address stake_owner = my_stake.stake_owner;\n          stake_owner.transfer(pay_back);\n        \n        }\n      }\n\n    } \n    return 1;\n  }\n\n<<<<<<< HEAD\n  function pay_insurance_claim (uint _house_token, uint payment_amount) {\n    if (msg.sender != company_address) {\n      return 0;\n    }\n=======\n  function pay_insurance_claim() {\n>>>>>>> 798849e9d14e111da64026a1773951a64e7fa2cb\n\n    House memory my_house = house_info[_house_token];\n\n\n    uint my_amount_insured = my_house.amount_insured;  \n    uint my_stake_tokens = my_house.stake_tokens;\n    if (my_amount_insured < payment_amount) {\n      //event failed\n      return 0;\n\n    }\n\n    uint amount_payback_stakeholders = my_amount_insured - payment_amount;\n    address homeowner = my_house.house_owner;\n\n    homeowner.transfer(payment_amount);\n\n    for (uint j = 0; j < my_stake_tokens.length; j++) {\n      Stake memory my_stake = stake_info[my_stake_tokens[i]];\n      uint dividend_amount = my_stake.percentage_staked; \n      uint pay_back = uint((my_stake.amount_insured * dividend_amount / 100));\n      address stake_owner = my_stake.stake_owner;\n      stake_owner.transfer(pay_back);\n    }\n    return 1;\n\n  }\n*/\n\n\n\n\n\n\n}\n\n\n",
  "sourcePath": "/Users/kmurali/Box Sync/Crypto/homeinsurev2/contracts/Insurance.sol",
  "compiler": {
    "name": "solc",
    "version": "0.4.23+commit.124ca40d.Emscripten.clang"
  },
  "schemaVersion": "2.0.0",
  "updatedAt": "2018-05-04T21:17:25.671Z"
}