{
  "contractName": "Insurance",
  "abi": [
    {
      "constant": true,
      "inputs": [
        {
          "name": "",
          "type": "uint256"
        }
      ],
      "name": "house_info",
      "outputs": [
        {
          "name": "house_owner",
          "type": "address"
        },
        {
          "name": "total_to_insure",
          "type": "uint256"
        },
        {
          "name": "percentage_insured",
          "type": "uint256"
        },
        {
          "name": "yearly_payment",
          "type": "uint256"
        },
        {
          "name": "yearly_stakeholder_dividend",
          "type": "uint256"
        },
        {
          "name": "is_fully_insured",
          "type": "bool"
        },
        {
          "name": "payment_for_year_completed",
          "type": "bool"
        },
        {
          "name": "house_evaluator",
          "type": "address"
        },
        {
          "name": "is_claim_active",
          "type": "bool"
        },
        {
          "name": "claim_amount",
          "type": "uint256"
        }
      ],
      "payable": false,
      "stateMutability": "view",
      "type": "function"
    },
    {
      "constant": true,
      "inputs": [
        {
          "name": "",
          "type": "address"
        }
      ],
      "name": "balances",
      "outputs": [
        {
          "name": "",
          "type": "uint256"
        }
      ],
      "payable": false,
      "stateMutability": "view",
      "type": "function"
    },
    {
      "constant": true,
      "inputs": [],
      "name": "company_address",
      "outputs": [
        {
          "name": "",
          "type": "address"
        }
      ],
      "payable": false,
      "stateMutability": "view",
      "type": "function"
    },
    {
      "constant": true,
      "inputs": [
        {
          "name": "",
          "type": "address"
        },
        {
          "name": "",
          "type": "uint256"
        }
      ],
      "name": "address_to_stake_tokens",
      "outputs": [
        {
          "name": "",
          "type": "uint256"
        }
      ],
      "payable": false,
      "stateMutability": "view",
      "type": "function"
    },
    {
      "constant": true,
      "inputs": [
        {
          "name": "",
          "type": "address"
        },
        {
          "name": "",
          "type": "uint256"
        }
      ],
      "name": "evaluator_to_house_tokens",
      "outputs": [
        {
          "name": "",
          "type": "uint256"
        }
      ],
      "payable": false,
      "stateMutability": "view",
      "type": "function"
    },
    {
      "constant": true,
      "inputs": [
        {
          "name": "",
          "type": "address"
        },
        {
          "name": "",
          "type": "uint256"
        }
      ],
      "name": "address_to_house_tokens",
      "outputs": [
        {
          "name": "",
          "type": "uint256"
        }
      ],
      "payable": false,
      "stateMutability": "view",
      "type": "function"
    },
    {
      "constant": true,
      "inputs": [],
      "name": "num_things",
      "outputs": [
        {
          "name": "",
          "type": "uint256"
        }
      ],
      "payable": false,
      "stateMutability": "view",
      "type": "function"
    },
    {
      "constant": true,
      "inputs": [
        {
          "name": "",
          "type": "uint256"
        }
      ],
      "name": "stake_info",
      "outputs": [
        {
          "name": "house_token",
          "type": "uint256"
        },
        {
          "name": "stake_owner",
          "type": "address"
        },
        {
          "name": "amount_insured",
          "type": "uint256"
        },
        {
          "name": "percentage_staked",
          "type": "uint256"
        }
      ],
      "payable": false,
      "stateMutability": "view",
      "type": "function"
    },
    {
      "anonymous": false,
      "inputs": [
        {
          "indexed": false,
          "name": "description",
          "type": "bytes32"
        }
      ],
      "name": "Error",
      "type": "event"
    },
    {
      "anonymous": false,
      "inputs": [
        {
          "indexed": false,
          "name": "house_token",
          "type": "uint256"
        },
        {
          "indexed": false,
          "name": "stake_tokens",
          "type": "uint256[]"
        }
      ],
      "name": "House_Fully_Insured_Success",
      "type": "event"
    },
    {
      "anonymous": false,
      "inputs": [
        {
          "indexed": false,
          "name": "house_token",
          "type": "uint256"
        },
        {
          "indexed": false,
          "name": "stake_tokens",
          "type": "uint256[]"
        }
      ],
      "name": "House_Failed_To_Insure",
      "type": "event"
    },
    {
      "anonymous": false,
      "inputs": [
        {
          "indexed": false,
          "name": "house_token",
          "type": "uint256"
        },
        {
          "indexed": false,
          "name": "timestamtimestamp",
          "type": "uint256"
        }
      ],
      "name": "yearly_House_Payment_Success",
      "type": "event"
    },
    {
      "anonymous": false,
      "inputs": [
        {
          "indexed": false,
          "name": "house_token",
          "type": "uint256"
        },
        {
          "indexed": false,
          "name": "",
          "type": "uint256"
        },
        {
          "indexed": false,
          "name": "error",
          "type": "bytes32"
        }
      ],
      "name": "yearly_House_Payment_Failed",
      "type": "event"
    },
    {
      "anonymous": false,
      "inputs": [
        {
          "indexed": false,
          "name": "stake_token",
          "type": "uint256"
        },
        {
          "indexed": false,
          "name": "stake_amount_insured",
          "type": "uint256"
        }
      ],
      "name": "Stake_Contribution",
      "type": "event"
    },
    {
      "anonymous": false,
      "inputs": [
        {
          "indexed": false,
          "name": "stake_token",
          "type": "uint256"
        },
        {
          "indexed": false,
          "name": "stake_amount_insured",
          "type": "uint256"
        }
      ],
      "name": "Stake_Contribution_Fail",
      "type": "event"
    },
    {
      "constant": false,
      "inputs": [],
      "name": "initialize_contract",
      "outputs": [],
      "payable": false,
      "stateMutability": "nonpayable",
      "type": "function"
    },
    {
      "constant": false,
      "inputs": [],
      "name": "get_num_things",
      "outputs": [
        {
          "name": "",
          "type": "uint256"
        }
      ],
      "payable": false,
      "stateMutability": "nonpayable",
      "type": "function"
    },
    {
      "constant": false,
      "inputs": [],
      "name": "add_client_address",
      "outputs": [],
      "payable": false,
      "stateMutability": "nonpayable",
      "type": "function"
    },
    {
      "constant": false,
      "inputs": [
        {
          "name": "_my_address",
          "type": "address"
        }
      ],
      "name": "get_address_to_house_tokens",
      "outputs": [
        {
          "name": "tokens",
          "type": "uint256[]"
        }
      ],
      "payable": false,
      "stateMutability": "nonpayable",
      "type": "function"
    },
    {
      "constant": false,
      "inputs": [
        {
          "name": "_house_token",
          "type": "uint256"
        },
        {
          "name": "_total_to_insure",
          "type": "uint256"
        },
        {
          "name": "_yearly_payment",
          "type": "uint256"
        },
        {
          "name": "_yearly_stakeholder_dividend",
          "type": "uint256"
        }
      ],
      "name": "add_evaluation",
      "outputs": [
        {
          "name": "success",
          "type": "bool"
        }
      ],
      "payable": false,
      "stateMutability": "nonpayable",
      "type": "function"
    },
    {
      "constant": false,
      "inputs": [
        {
          "name": "_house_token",
          "type": "uint256"
        }
      ],
      "name": "get_house_evaluator",
      "outputs": [
        {
          "name": "evaluator",
          "type": "address"
        }
      ],
      "payable": false,
      "stateMutability": "nonpayable",
      "type": "function"
    },
    {
      "constant": false,
      "inputs": [
        {
          "name": "_house_token",
          "type": "uint256"
        }
      ],
      "name": "get_homeowner",
      "outputs": [
        {
          "name": "homeowner",
          "type": "address"
        }
      ],
      "payable": false,
      "stateMutability": "nonpayable",
      "type": "function"
    },
    {
      "constant": false,
      "inputs": [
        {
          "name": "_house_token",
          "type": "uint256"
        }
      ],
      "name": "get_yearly_stakeholder_dividend",
      "outputs": [
        {
          "name": "amount",
          "type": "uint256"
        }
      ],
      "payable": false,
      "stateMutability": "nonpayable",
      "type": "function"
    },
    {
      "constant": false,
      "inputs": [
        {
          "name": "_house_token",
          "type": "uint256"
        }
      ],
      "name": "add_house_for_client",
      "outputs": [],
      "payable": false,
      "stateMutability": "nonpayable",
      "type": "function"
    },
    {
      "constant": false,
      "inputs": [
        {
          "name": "_house_token",
          "type": "uint256"
        }
      ],
      "name": "check_house_expired_or_declined",
      "outputs": [
        {
          "name": "success",
          "type": "bool"
        }
      ],
      "payable": false,
      "stateMutability": "nonpayable",
      "type": "function"
    },
    {
      "constant": false,
      "inputs": [
        {
          "name": "_house_token",
          "type": "uint256"
        }
      ],
      "name": "make_initial_payment",
      "outputs": [
        {
          "name": "success",
          "type": "bool"
        }
      ],
      "payable": true,
      "stateMutability": "payable",
      "type": "function"
    },
    {
      "constant": false,
      "inputs": [
        {
          "name": "_house_token",
          "type": "uint256"
        },
        {
          "name": "_claim_amount",
          "type": "uint256"
        }
      ],
      "name": "create_insurance_claim",
      "outputs": [
        {
          "name": "success",
          "type": "bool"
        }
      ],
      "payable": false,
      "stateMutability": "nonpayable",
      "type": "function"
    },
    {
      "constant": false,
      "inputs": [
        {
          "name": "_stake_token",
          "type": "uint256"
        },
        {
          "name": "_house_token",
          "type": "uint256"
        },
        {
          "name": "percentage_purchased",
          "type": "uint256"
        }
      ],
      "name": "add_stake_for_stakeholder",
      "outputs": [
        {
          "name": "success",
          "type": "bool"
        }
      ],
      "payable": true,
      "stateMutability": "payable",
      "type": "function"
    }
  ],
  "bytecode": "0x6080604052600060075534801561001557600080fd5b50612c05806100256000396000f30060806040526004361061011d576000357c0100000000000000000000000000000000000000000000000000000000900463ffffffff168063227e37af14610122578063274237601461014d57806327e235e3146102315780632cba9d5814610288578063324d810f146102eb57806335102f8c1461038357806335518a09146103f057806335a28eb31461043157806347121306146104885780634dca4b8a146104e957806364481913146105165780636d870065146105625780637c1c39ab146105c35780638cb951f31461061257806392f68cd11461067f57806397a333d1146106b75780639b8ca89c146106ce578063b84694f21461072f578063caf4fa7214610746578063d432e5da14610771578063fa7e5594146107b6575b600080fd5b34801561012e57600080fd5b50610137610838565b6040518082815260200191505060405180910390f35b34801561015957600080fd5b5061017860048036038101908080359060200190929190505050610842565b604051808b73ffffffffffffffffffffffffffffffffffffffff1673ffffffffffffffffffffffffffffffffffffffff1681526020018a815260200189815260200188815260200187815260200186151515158152602001851515151581526020018473ffffffffffffffffffffffffffffffffffffffff1673ffffffffffffffffffffffffffffffffffffffff168152602001831515151581526020018281526020019a505050505050505050505060405180910390f35b34801561023d57600080fd5b50610272600480360381019080803573ffffffffffffffffffffffffffffffffffffffff1690602001909291905050506108fd565b6040518082815260200191505060405180910390f35b34801561029457600080fd5b506102d160048036038101908080359060200190929190803590602001909291908035906020019092919080359060200190929190505050610915565b604051808215151515815260200191505060405180910390f35b3480156102f757600080fd5b5061032c600480360381019080803573ffffffffffffffffffffffffffffffffffffffff169060200190929190505050610b2c565b6040518080602001828103825283818151815260200191508051906020019060200280838360005b8381101561036f578082015181840152602081019050610354565b505050509050019250505060405180910390f35b34801561038f57600080fd5b506103ae60048036038101908080359060200190929190505050610bc3565b604051808273ffffffffffffffffffffffffffffffffffffffff1673ffffffffffffffffffffffffffffffffffffffff16815260200191505060405180910390f35b3480156103fc57600080fd5b5061041b60048036038101908080359060200190929190505050610c03565b6040518082815260200191505060405180910390f35b34801561043d57600080fd5b50610446610c23565b604051808273ffffffffffffffffffffffffffffffffffffffff1673ffffffffffffffffffffffffffffffffffffffff16815260200191505060405180910390f35b34801561049457600080fd5b506104d3600480360381019080803573ffffffffffffffffffffffffffffffffffffffff16906020019092919080359060200190929190505050610c48565b6040518082815260200191505060405180910390f35b3480156104f557600080fd5b5061051460048036038101908080359060200190929190505050610c78565b005b610548600480360381019080803590602001909291908035906020019092919080359060200190929190505050610f24565b604051808215151515815260200191505060405180910390f35b34801561056e57600080fd5b506105ad600480360381019080803573ffffffffffffffffffffffffffffffffffffffff1690602001909291908035906020019092919050505061144f565b6040518082815260200191505060405180910390f35b3480156105cf57600080fd5b506105f8600480360381019080803590602001909291908035906020019092919050505061147f565b604051808215151515815260200191505060405180910390f35b34801561061e57600080fd5b5061063d600480360381019080803590602001909291905050506116a5565b604051808273ffffffffffffffffffffffffffffffffffffffff1673ffffffffffffffffffffffffffffffffffffffff16815260200191505060405180910390f35b61069d600480360381019080803590602001909291905050506116e5565b604051808215151515815260200191505060405180910390f35b3480156106c357600080fd5b506106cc611c8a565b005b3480156106da57600080fd5b50610719600480360381019080803573ffffffffffffffffffffffffffffffffffffffff16906020019092919080359060200190929190505050611d10565b6040518082815260200191505060405180910390f35b34801561073b57600080fd5b50610744611d40565b005b34801561075257600080fd5b5061075b611d82565b6040518082815260200191505060405180910390f35b34801561077d57600080fd5b5061079c60048036038101908080359060200190929190505050611d88565b604051808215151515815260200191505060405180910390f35b3480156107c257600080fd5b506107e160048036038101908080359060200190929190505050612270565b604051808581526020018473ffffffffffffffffffffffffffffffffffffffff1673ffffffffffffffffffffffffffffffffffffffff16815260200183815260200182815260200194505050505060405180910390f35b6000600754905090565b60046020528060005260406000206000915090508060000160009054906101000a900473ffffffffffffffffffffffffffffffffffffffff16908060010154908060020154908060040154908060050154908060060160009054906101000a900460ff16908060060160019054906101000a900460ff16908060060160029054906101000a900473ffffffffffffffffffffffffffffffffffffffff16908060060160169054906101000a900460ff1690806007015490508a565b60016020528060005260406000206000915090505481565b600061091f612a2d565b6004600087815260200190815260200160002061016060405190810160405290816000820160009054906101000a900473ffffffffffffffffffffffffffffffffffffffff1673ffffffffffffffffffffffffffffffffffffffff1673ffffffffffffffffffffffffffffffffffffffff1681526020016001820154815260200160028201548152602001600382018054806020026020016040519081016040528092919081815260200182805480156109f857602002820191906000526020600020905b8154815260200190600101908083116109e4575b5050505050815260200160048201548152602001600582015481526020016006820160009054906101000a900460ff161515151581526020016006820160019054906101000a900460ff161515151581526020016006820160029054906101000a900473ffffffffffffffffffffffffffffffffffffffff1673ffffffffffffffffffffffffffffffffffffffff1673ffffffffffffffffffffffffffffffffffffffff1681526020016006820160169054906101000a900460ff1615151515815260200160078201548152505090503381610100019073ffffffffffffffffffffffffffffffffffffffff16908173ffffffffffffffffffffffffffffffffffffffff16815250508481602001818152505083816080018181525050828160a00181815250506001915050949350505050565b6060600260008373ffffffffffffffffffffffffffffffffffffffff1673ffffffffffffffffffffffffffffffffffffffff168152602001908152602001600020805480602002602001604051908101604052809291908181526020018280548015610bb757602002820191906000526020600020905b815481526020019060010190808311610ba3575b50505050509050919050565b60006004600083815260200190815260200160002060000160009054906101000a900473ffffffffffffffffffffffffffffffffffffffff169050919050565b600060046000838152602001908152602001600020600501549050919050565b6000809054906101000a900473ffffffffffffffffffffffffffffffffffffffff1681565b600560205281600052604060002081815481101515610c6357fe5b90600052602060002001600091509150505481565b6000610c82612a2d565b339150610160604051908101604052808373ffffffffffffffffffffffffffffffffffffffff16815260200160008152602001600081526020016000604051908082528060200260200182016040528015610cec5781602001602082028038833980820191505090505b50815260200160008152602001600081526020016000151581526020016000151581526020016000809054906101000a900473ffffffffffffffffffffffffffffffffffffffff1673ffffffffffffffffffffffffffffffffffffffff16815260200160001515815260200160008152509050600260008373ffffffffffffffffffffffffffffffffffffffff1673ffffffffffffffffffffffffffffffffffffffff168152602001908152602001600020839080600181540180825580915050906001820390600052602060002001600090919290919091505550806004600085815260200190815260200160002060008201518160000160006101000a81548173ffffffffffffffffffffffffffffffffffffffff021916908373ffffffffffffffffffffffffffffffffffffffff16021790555060208201518160010155604082015181600201556060820151816003019080519060200190610e53929190612aba565b506080820151816004015560a0820151816005015560c08201518160060160006101000a81548160ff02191690831515021790555060e08201518160060160016101000a81548160ff0219169083151502179055506101008201518160060160026101000a81548173ffffffffffffffffffffffffffffffffffffffff021916908373ffffffffffffffffffffffffffffffffffffffff1602179055506101208201518160060160166101000a81548160ff0219169083151502179055506101408201518160070155905050505050565b600080610f2f612a2d565b6000806000610f3c612b07565b339550600460008a815260200190815260200160002061016060405190810160405290816000820160009054906101000a900473ffffffffffffffffffffffffffffffffffffffff1673ffffffffffffffffffffffffffffffffffffffff1673ffffffffffffffffffffffffffffffffffffffff16815260200160018201548152602001600282015481526020016003820180548060200260200160405190810160405280929190818152602001828054801561101857602002820191906000526020600020905b815481526020019060010190808311611004575b5050505050815260200160048201548152602001600582015481526020016006820160009054906101000a900460ff161515151581526020016006820160019054906101000a900460ff161515151581526020016006820160029054906101000a900473ffffffffffffffffffffffffffffffffffffffff1673ffffffffffffffffffffffffffffffffffffffff1673ffffffffffffffffffffffffffffffffffffffff1681526020016006820160169054906101000a900460ff1615151515815260200160078201548152505094508460c0015115611142573373ffffffffffffffffffffffffffffffffffffffff166108fc349081150290604051600060405180830381858888f19350505050158015611138573d6000803e3d6000fd5b5060009650611442565b84604001516064039350838811156111a4573373ffffffffffffffffffffffffffffffffffffffff166108fc349081150290604051600060405180830381858888f1935050505015801561119a573d6000803e3d6000fd5b5060009650611442565b6064888660200151028115156111b657fe5b04925034831115611250573373ffffffffffffffffffffffffffffffffffffffff166108fc349081150290604051600060405180830381858888f19350505050158015611207573d6000803e3d6000fd5b507f8cede6b4ab2dfbcabf55acb74f99e4bf04eec57df0662d64e508a94c08aeedcb8a34604051808381526020018281526020019250505060405180910390a160009650611442565b34831115156112ef5782340391507fbc0d9800abbcab8897b0b364203debebe1a6190ca952c2a1de76b641a2e2fc4a8a34604051808381526020018281526020019250505060405180910390a160008211156112ee573373ffffffffffffffffffffffffffffffffffffffff166108fc839081150290604051600060405180830381858888f193505050501580156112ec573d6000803e3d6000fd5b505b5b8785604001510185604001818152505060648560400151141561131e5760018560c00190151590811515815250505b6080604051908101604052808a81526020018773ffffffffffffffffffffffffffffffffffffffff168152602001848152602001898152509050600560008773ffffffffffffffffffffffffffffffffffffffff1673ffffffffffffffffffffffffffffffffffffffff1681526020019081526020016000208a908060018154018082558091505090600182039060005260206000200160009091929091909150555080600660008c81526020019081526020016000206000820151816000015560208201518160010160006101000a81548173ffffffffffffffffffffffffffffffffffffffff021916908373ffffffffffffffffffffffffffffffffffffffff1602179055506040820151816002015560608201518160030155905050600196505b5050505050509392505050565b60036020528160005260406000208181548110151561146a57fe5b90600052602060002001600091509150505481565b6000611489612a2d565b6004600085815260200190815260200160002061016060405190810160405290816000820160009054906101000a900473ffffffffffffffffffffffffffffffffffffffff1673ffffffffffffffffffffffffffffffffffffffff1673ffffffffffffffffffffffffffffffffffffffff16815260200160018201548152602001600282015481526020016003820180548060200260200160405190810160405280929190818152602001828054801561156257602002820191906000526020600020905b81548152602001906001019080831161154e575b5050505050815260200160048201548152602001600582015481526020016006820160009054906101000a900460ff161515151581526020016006820160019054906101000a900460ff161515151581526020016006820160029054906101000a900473ffffffffffffffffffffffffffffffffffffffff1673ffffffffffffffffffffffffffffffffffffffff1673ffffffffffffffffffffffffffffffffffffffff1681526020016006820160169054906101000a900460ff1615151515815260200160078201548152505090503373ffffffffffffffffffffffffffffffffffffffff1681610100015173ffffffffffffffffffffffffffffffffffffffff16141515611675576000915061169e565b600181610120019015159081151581525050828161014001818152505061169b846122c0565b91505b5092915050565b60006004600083815260200190815260200160002060060160029054906101000a900473ffffffffffffffffffffffffffffffffffffffff169050919050565b60006116ef612a2d565b6000806000806000806000600460008b815260200190815260200160002061016060405190810160405290816000820160009054906101000a900473ffffffffffffffffffffffffffffffffffffffff1673ffffffffffffffffffffffffffffffffffffffff1673ffffffffffffffffffffffffffffffffffffffff1681526020016001820154815260200160028201548152602001600382018054806020026020016040519081016040528092919081815260200182805480156117d357602002820191906000526020600020905b8154815260200190600101908083116117bf575b5050505050815260200160048201548152602001600582015481526020016006820160009054906101000a900460ff161515151581526020016006820160019054906101000a900460ff161515151581526020016006820160029054906101000a900473ffffffffffffffffffffffffffffffffffffffff1673ffffffffffffffffffffffffffffffffffffffff1673ffffffffffffffffffffffffffffffffffffffff1681526020016006820160169054906101000a900460ff161515151581526020016007820154815250509750429650876000015173ffffffffffffffffffffffffffffffffffffffff163373ffffffffffffffffffffffffffffffffffffffff161415156119a1577f486f6d656f776e657220646f6573206e6f74206d61746368206164647265737395507fa82d08224b5fc7f559e3f0762fccc4e7fcb35c6bcd551c514d98b51ed8dfe78f8a8888604051808481526020018381526020018260001916600019168152602001935050505060405180910390a13373ffffffffffffffffffffffffffffffffffffffff166108fc349081150290604051600060405180830381858888f19350505050158015611997573d6000803e3d6000fd5b5060009850611c7d565b8760c001511515611a6e577f486f6d65206e6f74207965742066756c6c7920696e737572656400000000000094507fa82d08224b5fc7f559e3f0762fccc4e7fcb35c6bcd551c514d98b51ed8dfe78f8a8887604051808481526020018381526020018260001916600019168152602001935050505060405180910390a13373ffffffffffffffffffffffffffffffffffffffff166108fc349081150290604051600060405180830381858888f19350505050158015611a64573d6000803e3d6000fd5b5060009850611c7d565b8760e0015115611b3a577f5061796d656e7420616c726561647920636f6d706c657465640000000000000093507fa82d08224b5fc7f559e3f0762fccc4e7fcb35c6bcd551c514d98b51ed8dfe78f8a8886604051808481526020018381526020018260001916600019168152602001935050505060405180910390a13373ffffffffffffffffffffffffffffffffffffffff166108fc349081150290604051600060405180830381858888f19350505050158015611b30573d6000803e3d6000fd5b5060009850611c7d565b8760800151925082341015611c0b577f5061796d656e74206e6f742073756666696369656e740000000000000000000091507fa82d08224b5fc7f559e3f0762fccc4e7fcb35c6bcd551c514d98b51ed8dfe78f8a8884604051808481526020018381526020018260001916600019168152602001935050505060405180910390a13373ffffffffffffffffffffffffffffffffffffffff166108fc349081150290604051600060405180830381858888f19350505050158015611c01573d6000803e3d6000fd5b5060009850611c7d565b60018860e001901515908115158152505082341115611c715782340390503373ffffffffffffffffffffffffffffffffffffffff166108fc829081150290604051600060405180830381858888f19350505050158015611c6f573d6000803e3d6000fd5b505b611c7a8a61271c565b98505b5050505050505050919050565b6000604051908082528060200260200182016040528015611cba5781602001602082028038833980820191505090505b50600260003373ffffffffffffffffffffffffffffffffffffffff1673ffffffffffffffffffffffffffffffffffffffff1681526020019081526020016000209080519060200190611d0d929190612b46565b50565b600260205281600052604060002081815481101515611d2b57fe5b90600052602060002001600091509150505481565b336000806101000a81548173ffffffffffffffffffffffffffffffffffffffff021916908373ffffffffffffffffffffffffffffffffffffffff160217905550565b60075481565b6000611d92612a2d565b60606000611d9e612b07565b6000806004600089815260200190815260200160002061016060405190810160405290816000820160009054906101000a900473ffffffffffffffffffffffffffffffffffffffff1673ffffffffffffffffffffffffffffffffffffffff1673ffffffffffffffffffffffffffffffffffffffff168152602001600182015481526020016002820154815260200160038201805480602002602001604051908101604052809291908181526020018280548015611e7a57602002820191906000526020600020905b815481526020019060010190808311611e66575b5050505050815260200160048201548152602001600582015481526020016006820160009054906101000a900460ff161515151581526020016006820160019054906101000a900460ff161515151581526020016006820160029054906101000a900473ffffffffffffffffffffffffffffffffffffffff1673ffffffffffffffffffffffffffffffffffffffff1673ffffffffffffffffffffffffffffffffffffffff1681526020016006820160169054906101000a900460ff161515151581526020016007820154815250509550856000015173ffffffffffffffffffffffffffffffffffffffff163373ffffffffffffffffffffffffffffffffffffffff1614158015611fd757506000809054906101000a900473ffffffffffffffffffffffffffffffffffffffff1673ffffffffffffffffffffffffffffffffffffffff163373ffffffffffffffffffffffffffffffffffffffff1614155b15611fe55760009650612265565b8560c0015115156122605785606001519450600093505b845184101561217f5760066000868681518110151561201757fe5b90602001906020020151815260200190815260200160002060806040519081016040529081600082015481526020016001820160009054906101000a900473ffffffffffffffffffffffffffffffffffffffff1673ffffffffffffffffffffffffffffffffffffffff1673ffffffffffffffffffffffffffffffffffffffff16815260200160028201548152602001600382015481525050925082602001519150826040015190508173ffffffffffffffffffffffffffffffffffffffff166108fc829081150290604051600060405180830381858888f19350505050158015612105573d6000803e3d6000fd5b5060066000868681518110151561211857fe5b9060200190602002015181526020019081526020016000206000808201600090556001820160006101000a81549073ffffffffffffffffffffffffffffffffffffffff02191690556002820160009055600382016000905550508380600101945050611ffc565b60046000898152602001908152602001600020600080820160006101000a81549073ffffffffffffffffffffffffffffffffffffffff0219169055600182016000905560028201600090556003820160006121da9190612b93565b600482016000905560058201600090556006820160006101000a81549060ff02191690556006820160016101000a81549060ff02191690556006820160026101000a81549073ffffffffffffffffffffffffffffffffffffffff02191690556006820160166101000a81549060ff02191690556007820160009055505060019650612265565b600096505b505050505050919050565b60066020528060005260406000206000915090508060000154908060010160009054906101000a900473ffffffffffffffffffffffffffffffffffffffff16908060020154908060030154905084565b60006122ca612a2d565b600080606060006122d9612b07565b6000806000600460008c815260200190815260200160002061016060405190810160405290816000820160009054906101000a900473ffffffffffffffffffffffffffffffffffffffff1673ffffffffffffffffffffffffffffffffffffffff1673ffffffffffffffffffffffffffffffffffffffff1681526020016001820154815260200160028201548152602001600382018054806020026020016040519081016040528092919081815260200182805480156123b757602002820191906000526020600020905b8154815260200190600101908083116123a3575b5050505050815260200160048201548152602001600582015481526020016006820160009054906101000a900460ff161515151581526020016006820160019054906101000a900460ff161515151581526020016006820160029054906101000a900473ffffffffffffffffffffffffffffffffffffffff1673ffffffffffffffffffffffffffffffffffffffff1673ffffffffffffffffffffffffffffffffffffffff1681526020016006820160169054906101000a900460ff1615151515815260200160078201548152505098508860000151975088610120015115156124a3576000995061270e565b8773ffffffffffffffffffffffffffffffffffffffff166108fc8a61014001519081150290604051600060405180830381858888f193505050501580156124ee573d6000803e3d6000fd5b50886101400151896020015103965088606001519550600094505b85518510156126315760066000878781518110151561252457fe5b90602001906020020151815260200190815260200160002060806040519081016040529081600082015481526020016001820160009054906101000a900473ffffffffffffffffffffffffffffffffffffffff1673ffffffffffffffffffffffffffffffffffffffff1673ffffffffffffffffffffffffffffffffffffffff168152602001600282015481526020016003820154815250509350836060015192508360200151915060648388028115156125da57fe5b0490508173ffffffffffffffffffffffffffffffffffffffff166108fc829081150290604051600060405180830381858888f19350505050158015612623573d6000803e3d6000fd5b508480600101955050612509565b600460008c8152602001908152602001600020600080820160006101000a81549073ffffffffffffffffffffffffffffffffffffffff02191690556001820160009055600282016000905560038201600061268c9190612b93565b600482016000905560058201600090556006820160006101000a81549060ff02191690556006820160016101000a81549060ff02191690556006820160026101000a81549073ffffffffffffffffffffffffffffffffffffffff02191690556006820160166101000a81549060ff021916905560078201600090555050600199505b505050505050505050919050565b6000612726612a2d565b6060600080612733612b07565b6000806000600460008b815260200190815260200160002061016060405190810160405290816000820160009054906101000a900473ffffffffffffffffffffffffffffffffffffffff1673ffffffffffffffffffffffffffffffffffffffff1673ffffffffffffffffffffffffffffffffffffffff16815260200160018201548152602001600282015481526020016003820180548060200260200160405190810160405280929190818152602001828054801561281157602002820191906000526020600020905b8154815260200190600101908083116127fd575b5050505050815260200160048201548152602001600582015481526020016006820160009054906101000a900460ff161515151581526020016006820160019054906101000a900460ff161515151581526020016006820160029054906101000a900473ffffffffffffffffffffffffffffffffffffffff1673ffffffffffffffffffffffffffffffffffffffff1673ffffffffffffffffffffffffffffffffffffffff1681526020016006820160169054906101000a900460ff161515151581526020016007820154815250509750876060015196508760a001519550600094505b8651851015612a1c5760066000888781518110151561290f57fe5b90602001906020020151815260200190815260200160002060806040519081016040529081600082015481526020016001820160009054906101000a900473ffffffffffffffffffffffffffffffffffffffff1673ffffffffffffffffffffffffffffffffffffffff1673ffffffffffffffffffffffffffffffffffffffff168152602001600282015481526020016003820154815250509350836060015192508360200151915060648387028115156129c557fe5b0490508173ffffffffffffffffffffffffffffffffffffffff166108fc829081150290604051600060405180830381858888f19350505050158015612a0e573d6000803e3d6000fd5b5084806001019550506128f4565b600198505050505050505050919050565b61016060405190810160405280600073ffffffffffffffffffffffffffffffffffffffff1681526020016000815260200160008152602001606081526020016000815260200160008152602001600015158152602001600015158152602001600073ffffffffffffffffffffffffffffffffffffffff168152602001600015158152602001600081525090565b828054828255906000526020600020908101928215612af6579160200282015b82811115612af5578251825591602001919060010190612ada565b5b509050612b039190612bb4565b5090565b60806040519081016040528060008152602001600073ffffffffffffffffffffffffffffffffffffffff16815260200160008152602001600081525090565b828054828255906000526020600020908101928215612b82579160200282015b82811115612b81578251825591602001919060010190612b66565b5b509050612b8f9190612bb4565b5090565b5080546000825590600052602060002090810190612bb19190612bb4565b50565b612bd691905b80821115612bd2576000816000905550600101612bba565b5090565b905600a165627a7a7230582010ea8a8c68f16d2582d25ff5e025fe695ac24286fb8b386b69e18f41b77feb7c0029",
  "source": "pragma solidity ^0.4.2;\n\ncontract Insurance {\n\n\n  event Error (bytes32 description);\n\n  event House_Fully_Insured_Success (uint house_token, uint[] stake_tokens);\n\n  event House_Failed_To_Insure (uint house_token, uint[] stake_tokens);\n  // event House_Fully_Insured_Success (uint house_token, address house_owner,\n  //     uint[] stake_tokens, address[] stakeholders);\n\n  // event House_Failed_To_Insure (uint house_token, address house_owner,\n  //     uint[] stake_tokens, address[] stakeholders);\n\n  event yearly_House_Payment_Success (uint house_token, uint timestamtimestamp);\n\n  event yearly_House_Payment_Failed (uint house_token, uint , bytes32 error);\n\n  event Stake_Contribution (uint stake_token, uint stake_amount_insured);\n\n  event Stake_Contribution_Fail (uint stake_token, uint stake_amount_insured);\n\n\n  address public company_address;\n\n  function initialize_contract() { \n    company_address = msg.sender;\n  }\n\n\n  \n  struct House {\n    //uint house_token;\n    address house_owner;\n\n    //In Wei\n    uint total_to_insure;\n\n    //Percentage\n    uint percentage_insured;\n\n    uint[] stake_tokens;\n\n    //Each stake will have to be a multiple of this minimum stake - 1% \n    //uint minimum_stake_payment;\n\n    //FROM talking with Sam and Chris, a user will insure for 10,000, but make a \n    //11,000 payment towards us. $1000 will stay in the contract, as our company cut \n    //And 10,000 will be distributed back towards the stakeholder \n    //\n\n    uint yearly_payment;\n\n    uint yearly_stakeholder_dividend;\n\n    bool is_fully_insured;\n\n    bool payment_for_year_completed;\n    //uint total_insurance_contribution\n    address house_evaluator;\n    bool is_claim_active;\n    uint claim_amount;\n\n  }\n\n  struct Stake {\n    //uint stake_token;\n    uint house_token;\n    address stake_owner;\n    // In ether?\n    uint amount_insured;\n    uint percentage_staked;\n  }\n\n  //Bidirectional Mapping: may not be needed \n  //mapping(address => uint) private address_to_client_token;\n  //address[] public clients;\n\n  mapping(address => uint) public balances;\n\n  //mapping(uint => address) private client_token_to_address;\n\n  //Client to their houses they want insured\n  mapping(address => uint[]) public address_to_house_tokens;\n\n  mapping(address => uint[]) public evaluator_to_house_tokens;\n\n  mapping(uint => House) public house_info;\n\n\n  //Insurer to which houses they are insuring\n  //mapping(address => uint) private address_to_insurer_token;\n  \n  mapping(address => uint[]) public address_to_stake_tokens;\n\n  mapping(uint => Stake) public stake_info;\n\n  uint public num_things = 0;\n  //uint[] private insurer_tokens;\n\n  //address[] public insurers;\n\n  /* TODOs for the functions:\n  1.) What will be the smallest unit of currency? Wei\n  2.) Storing to each of the mappings\n  3.) Schedulized payments on addition to insurer (ETH-Alarm clock)\n  4.) Cancelling insurance (end of term) and reimbursement/cancellation \n  of scheduled payments\n  5.) Optional: Timing to fulfill insurance request/notification upon fulfillment \n\n  6. Optional: Allow users the option to refresh their insurance based on the price \n  of the house\n\n\n  */\n\n  //Getters and setters for all mappings above\n  //\n  function get_num_things() public returns (uint){\n    return num_things; \n  }\n\n\n  function add_client_address() public {\n    //client_addresses.push(_house_owner);\n    address_to_house_tokens[msg.sender] = new uint[](0);\n  }\n\n  function get_address_to_house_tokens(address _my_address) public returns (uint[] tokens){\n    return address_to_house_tokens[_my_address];\n  }\n\n  //Called after insurer finishes an evaluation on the UI\n  function add_evaluation(uint _house_token,  uint _total_to_insure, uint _yearly_payment, \n    uint _yearly_stakeholder_dividend) public returns (bool success) {\n    House memory my_house = house_info[_house_token];\n    my_house.house_evaluator = msg.sender;\n    my_house.total_to_insure = _total_to_insure;\n    my_house.yearly_payment = _yearly_payment;\n    my_house.yearly_stakeholder_dividend = _yearly_stakeholder_dividend;\n    return true;\n  }\n\n  function get_house_evaluator(uint _house_token) public returns (address evaluator) {\n\n    return house_info[_house_token].house_evaluator;\n  }\n\n  function get_homeowner(uint _house_token) public returns (address homeowner) {\n\n    return house_info[_house_token].house_owner;\n  }\n\n  function get_yearly_stakeholder_dividend(uint _house_token) public returns (uint amount) {\n    return house_info[_house_token].yearly_stakeholder_dividend;\n  }\n\n  //When database hits submit, we add data to the chain  \n  function add_house_for_client(uint _house_token) public {\n\n    address _house_owner = msg.sender;\n    House memory my_house = House({house_owner: _house_owner, total_to_insure: 0, \n        percentage_insured: 0, stake_tokens: new uint[](0), yearly_payment: 0, yearly_stakeholder_dividend: 0, \n        is_fully_insured: false, payment_for_year_completed:false, house_evaluator: company_address, is_claim_active:false, claim_amount: 0});\n\n    address_to_house_tokens[_house_owner].push(_house_token);\n    house_info[_house_token] = my_house;\n  }\n\n  //Run a script that calls this function montly if \n  //Also call this if the user declines their quote \n  function check_house_expired_or_declined(uint _house_token) returns (bool success){\n    \n    House memory my_house = house_info[_house_token];\n\n    if (msg.sender != my_house.house_owner && msg.sender != company_address){\n      return false;\n    }\n\n    if (!my_house.is_fully_insured) {\n      uint[] memory my_stake_tokens = my_house.stake_tokens;\n\n      //length_stake_tokent = \n      for (uint i=0; i<my_stake_tokens.length; i++) {\n        Stake memory stake = stake_info[my_stake_tokens[i]];\n\n        address stake_address = stake.stake_owner;\n        uint stake_amount = stake.amount_insured;\n\n        stake_address.transfer(stake_amount);\n        delete stake_info[my_stake_tokens[i]];\n\n      }\n\n      delete house_info[_house_token];\n\n      // emit House_Failed_To_Insure(_house_token, my_house.stake_tokens);\n      return true;\n    }\n    return false;\n    \n\n\n    //Maintain invariant that house can't be over-insured\n    \n    \n  }\n\n  //Called when funding is completed and user hits submit \n  function make_initial_payment(uint _house_token) payable returns (bool success) {\n\n    //Needs to check that house is fully insured\n\n        //msg.address and msg.value\n    House memory my_house = house_info[_house_token];\n\n  \n    uint timestamp = block.timestamp;\n    //Check if address of sender matches home owner\n    if (msg.sender != my_house.house_owner){\n      bytes32 error1 = \"Homeowner does not match address\";\n      emit yearly_House_Payment_Failed(_house_token, timestamp, error1);\n      msg.sender.transfer(msg.value);\n      return false;\n    }\n\n    if (!my_house.is_fully_insured) {\n      bytes32 error4 = \"Home not yet fully insured\";\n      emit yearly_House_Payment_Failed(_house_token, timestamp, error4);\n      msg.sender.transfer(msg.value);\n      return false;\n    }\n\n    if (my_house.payment_for_year_completed){\n      bytes32 error2 = \"Payment already completed\";\n      emit yearly_House_Payment_Failed(_house_token, timestamp, error2);\n      msg.sender.transfer(msg.value);\n      return false;\n    }\n\n    //Maintain that payment amount by sender matches  \n    uint my_yearly_payment = my_house.yearly_payment;\n    if (msg.value < my_yearly_payment) {\n      bytes32 error3 = \"Payment not sufficient\";\n      emit yearly_House_Payment_Failed(_house_token, timestamp, error3);\n      msg.sender.transfer(msg.value);\n      return false;\n    }\n\n    my_house.payment_for_year_completed = true;\n    if (msg.value > my_yearly_payment) {\n      uint difference = msg.value - my_yearly_payment;\n      msg.sender.transfer(difference);\n    }\n\n    return payout_stakeholders(_house_token);\n\n  }\n\n  function payout_stakeholders(uint _house_token) internal returns (bool success){\n    House memory my_house = house_info[_house_token];\n    uint[] memory my_stake_tokens = my_house.stake_tokens;\n    uint my_yearly_dividend = my_house.yearly_stakeholder_dividend;\n    for (uint j = 0; j < my_stake_tokens.length; j++) {\n      Stake memory my_stake = stake_info[my_stake_tokens[j]];\n      uint dividend_amount = my_stake.percentage_staked;\n      address stake_owner = my_stake.stake_owner;\n      uint total_payout = uint(my_yearly_dividend * dividend_amount / (100));\n      stake_owner.transfer(total_payout);\n    }\n    return true;\n\n  }\n\n  //Both functions are called when Insurer calls functions \n  function create_insurance_claim (uint _house_token, uint _claim_amount) returns (bool success) { \n    House memory my_house = house_info[_house_token];\n    if (my_house.house_evaluator != msg.sender) {\n      return false;\n    }\n    my_house.is_claim_active = true;\n    my_house.claim_amount = _claim_amount;\n    return accept_insurance_claim(_house_token);\n\n  }\n\n  function accept_insurance_claim (uint _house_token) internal returns (bool success) { \n    House memory my_house = house_info[_house_token];\n    address my_house_owner = my_house.house_owner;\n    if (!my_house.is_claim_active) {\n      return false;\n    }\n    my_house_owner.transfer(my_house.claim_amount);\n    uint remaining_payout = my_house.total_to_insure - my_house.claim_amount;\n    uint[] memory my_stake_tokens = my_house.stake_tokens;\n    for (uint j = 0; j < my_stake_tokens.length; j++) {\n      Stake memory my_stake = stake_info[my_stake_tokens[j]];\n      uint dividend_amount = my_stake.percentage_staked;\n      address stake_owner = my_stake.stake_owner;\n      uint total_payout = uint(remaining_payout * dividend_amount / (100));\n      stake_owner.transfer(total_payout);\n    }\n\n    delete house_info[_house_token];\n    return true;\n\n  }\n\n\n\n\n  // function add_stakeholder_address(address _stakeholder_address) public {\n  //   address_to_stake_tokens[_stakeholder_address] = new uint[](0);\n  // }\n\n  function add_stake_for_stakeholder(uint _stake_token, uint _house_token, uint percentage_purchased) public payable returns (bool success){\n    //TODO: Calculate percentage_staked\n    address _stake_owner = msg.sender;\n\n    House memory house = house_info[_house_token];\n    if (house.is_fully_insured) {\n      msg.sender.transfer(msg.value);\n      return false;\n    }\n\n    uint remaining_to_insure = 100 - house.percentage_insured;\n    if (percentage_purchased > remaining_to_insure) {\n      msg.sender.transfer(msg.value);\n      //emit Stake_Contribution_Fail(_stake_token, msg.value);\n      return false;\n    }\n\n    \n\n    uint payment_due = (house.total_to_insure * percentage_purchased / 100);\n\n    if (payment_due > msg.value) { \n      msg.sender.transfer(msg.value);\n      emit Stake_Contribution_Fail (_stake_token, msg.value);\n      return false;\n    }\n\n    if (payment_due <= msg.value) {\n      uint over_payment = msg.value - payment_due;\n      emit Stake_Contribution (_stake_token, msg.value);\n      if (over_payment > 0) {\n        msg.sender.transfer(over_payment);\n      }\n    }\n\n    house.percentage_insured = house.percentage_insured + percentage_purchased;\n    if (house.percentage_insured == 100) {\n      house.is_fully_insured = true;\n    }\n\n    Stake memory stake = Stake({house_token: _house_token, stake_owner: _stake_owner,\n      amount_insured: payment_due, percentage_staked: percentage_purchased});\n    \n    address_to_stake_tokens[_stake_owner].push(_stake_token);\n    stake_info[_stake_token] = stake;\n    return true;\n\n  }\n\n  \n\n\n  //Payable function that takes yearly payments in the exact amount  \n  //\n\n  //Immediately pay back to stakeholders \n  \n\n  \n\n  //TODO: Paying out a plan\n\n\n  // function \n/*\n  //Sends yearly payments to stakeholders if yearly payment made correctly\n  //Otherwise homeowner has failed to pay, and reimburses the stakeholders\n<<<<<<< HEAD\n  function check_yearly_payments_complete {\n    if (msg.sender != company_address) {\n      return 0;\n    }\n\n\n=======\n  function check_yearly_payments_complete() {\n>>>>>>> 798849e9d14e111da64026a1773951a64e7fa2cb\n    for(i = 0; i < fully_insured_house_tokens.length; i++) {\n      if (fully_insured_house_tokens[i].is_fully_insured) {\n        fully_insured_house_tokens[i].is_fully_insured = false;\n\n        //emit yearly_House_Payment_Success (fully_insured_house_tokens[i], block.timestamp);\n      }\n      else {\n        //Throw em out of the smart contract, pay everyone back\n        House memory my_house = house_info[fully_insured_house_tokens[i]]\n        uint[] my_stake_tokens = my_house.stake_tokens;\n        for (uint j = 0; j < my_stake_tokens.length; j++) {\n          Stake memory my_stake = stake_info[my_stake_tokens[i]];\n          uint pay_back = my_stake.amount_insured;\n          address stake_owner = my_stake.stake_owner;\n          stake_owner.transfer(pay_back);\n        \n        }\n      }\n\n    } \n    return 1;\n  }\n\n<<<<<<< HEAD\n  function pay_insurance_claim (uint _house_token, uint payment_amount) {\n    if (msg.sender != company_address) {\n      return 0;\n    }\n=======\n  function pay_insurance_claim() {\n>>>>>>> 798849e9d14e111da64026a1773951a64e7fa2cb\n\n    House memory my_house = house_info[_house_token];\n\n\n    uint my_amount_insured = my_house.amount_insured;  \n    uint my_stake_tokens = my_house.stake_tokens;\n    if (my_amount_insured < payment_amount) {\n      //event failed\n      return 0;\n\n    }\n\n    uint amount_payback_stakeholders = my_amount_insured - payment_amount;\n    address homeowner = my_house.house_owner;\n\n    homeowner.transfer(payment_amount);\n\n    for (uint j = 0; j < my_stake_tokens.length; j++) {\n      Stake memory my_stake = stake_info[my_stake_tokens[i]];\n      uint dividend_amount = my_stake.percentage_staked; \n      uint pay_back = uint((my_stake.amount_insured * dividend_amount / 100));\n      address stake_owner = my_stake.stake_owner;\n      stake_owner.transfer(pay_back);\n    }\n    return 1;\n\n  }\n*/\n\n\n\n\n\n\n}\n\n\n",
  "sourcePath": "/Users/kmurali/Box Sync/Crypto/homeinsurev2/contracts/Insurance.sol",
  "compiler": {
    "name": "solc",
    "version": "0.4.23+commit.124ca40d.Emscripten.clang"
  },
  "schemaVersion": "2.0.0",
  "updatedAt": "2018-05-12T18:09:38.399Z"
}