{
  "contractName": "SimpleStorage",
  "abi": [
    {
      "constant": true,
      "inputs": [],
      "name": "storedData",
      "outputs": [
        {
          "name": "",
          "type": "uint256"
        }
      ],
      "payable": false,
      "stateMutability": "view",
      "type": "function"
    },
    {
      "anonymous": false,
      "inputs": [
        {
          "indexed": false,
          "name": "new_val",
          "type": "uint256"
        }
      ],
      "name": "ValueSet",
      "type": "event"
    },
    {
      "constant": false,
      "inputs": [
        {
          "name": "x",
          "type": "uint256"
        }
      ],
      "name": "set",
      "outputs": [],
      "payable": false,
      "stateMutability": "nonpayable",
      "type": "function"
    },
    {
      "constant": true,
      "inputs": [],
      "name": "get",
      "outputs": [
        {
          "name": "",
          "type": "uint256"
        }
      ],
      "payable": false,
      "stateMutability": "view",
      "type": "function"
    }
  ],
  "bytecode": "0x608060405234801561001057600080fd5b5061015b806100206000396000f300608060405260043610610057576000357c0100000000000000000000000000000000000000000000000000000000900463ffffffff1680632a1afcd91461005c57806360fe47b1146100875780636d4ce63c146100b4575b600080fd5b34801561006857600080fd5b506100716100df565b6040518082815260200191505060405180910390f35b34801561009357600080fd5b506100b2600480360381019080803590602001909291905050506100e5565b005b3480156100c057600080fd5b506100c9610126565b6040518082815260200191505060405180910390f35b60005481565b806000819055507f012c78e2b84325878b1bd9d250d772cfe5bda7722d795f45036fa5e1e6e303fc816040518082815260200191505060405180910390a150565b600080549050905600a165627a7a72305820a34ed798399381749c571023494e55d01edbe74c7a28d0071fcce124abf29f940029",
  "source": "pragma solidity ^0.4.2;\n\ncontract SimpleStorage {\n\n  event ValueSet(uint new_val);\n\n  uint public storedData;\n\n  function set(uint x) public {\n    storedData = x;\n    emit ValueSet(x);\n  }\n\n  function get() public view returns (uint) {\n    return storedData;\n  }\n}\n",
  "sourcePath": "/Users/kmurali/Box Sync/Crypto/homeinsurev2/contracts/SimpleStorage.sol",
  "compiler": {
    "name": "solc",
    "version": "0.4.23+commit.124ca40d.Emscripten.clang"
  },
  "schemaVersion": "2.0.0",
  "updatedAt": "2018-05-04T21:17:25.175Z"
}