{
  "contractName": "SimpleStorage",
  "abi": [
    {
      "constant": true,
      "inputs": [],
      "name": "storedData",
      "outputs": [
        {
          "name": "",
          "type": "uint256"
        }
      ],
      "payable": false,
      "stateMutability": "view",
      "type": "function"
    },
    {
      "anonymous": false,
      "inputs": [
        {
          "indexed": false,
          "name": "new_val",
          "type": "uint256"
        }
      ],
      "name": "ValueSet",
      "type": "event"
    },
    {
      "constant": false,
      "inputs": [
        {
          "name": "x",
          "type": "uint256"
        }
      ],
      "name": "set",
      "outputs": [],
      "payable": false,
      "stateMutability": "nonpayable",
      "type": "function"
    },
    {
      "constant": true,
      "inputs": [],
      "name": "get",
      "outputs": [
        {
          "name": "",
          "type": "uint256"
        }
      ],
      "payable": false,
      "stateMutability": "view",
      "type": "function"
    }
  ],
  "bytecode": "0x6060604052341561000f57600080fd5b61014d8061001e6000396000f300606060405260043610610057576000357c0100000000000000000000000000000000000000000000000000000000900463ffffffff1680632a1afcd91461005c57806360fe47b1146100855780636d4ce63c146100a8575b600080fd5b341561006757600080fd5b61006f6100d1565b6040518082815260200191505060405180910390f35b341561009057600080fd5b6100a660048080359060200190919050506100d7565b005b34156100b357600080fd5b6100bb610118565b6040518082815260200191505060405180910390f35b60005481565b806000819055507f012c78e2b84325878b1bd9d250d772cfe5bda7722d795f45036fa5e1e6e303fc816040518082815260200191505060405180910390a150565b600080549050905600a165627a7a723058204ed810992c4c8cb7f9d6869e0613216083b06d04567937e3670656109e5372d50029",
  "source": "pragma solidity ^0.4.2;\n\ncontract SimpleStorage {\n\n  event ValueSet(uint new_val);\n\n  uint public storedData;\n\n  function set(uint x) public {\n    storedData = x;\n    emit ValueSet(x);\n  }\n\n  function get() public view returns (uint) {\n    return storedData;\n  }\n}\n",
  "sourcePath": "/Users/Sam/Development/rtrufftest/contracts/SimpleStorage.sol",
  "compiler": {
    "name": "solc",
    "version": "0.4.21+commit.dfe3193c.Emscripten.clang"
  },
  "schemaVersion": "2.0.0",
  "updatedAt": "2018-05-11T21:12:55.694Z"
}